{
  "_format": "hh-sol-artifact-1",
  "contractName": "MonadArenaNFT",
  "sourceName": "contracts/MonadArenaNFT.sol",
  "abi": [
    {
      "inputs": [],
      "stateMutability": "nonpayable",
      "type": "constructor"
    },
    {
      "anonymous": false,
      "inputs": [
        {
          "indexed": true,
          "internalType": "address",
          "name": "owner",
          "type": "address"
        },
        {
          "indexed": true,
          "internalType": "address",
          "name": "approved",
          "type": "address"
        },
        {
          "indexed": true,
          "internalType": "uint256",
          "name": "tokenId",
          "type": "uint256"
        }
      ],
      "name": "Approval",
      "type": "event"
    },
    {
      "anonymous": false,
      "inputs": [
        {
          "indexed": true,
          "internalType": "address",
          "name": "owner",
          "type": "address"
        },
        {
          "indexed": true,
          "internalType": "address",
          "name": "operator",
          "type": "address"
        },
        {
          "indexed": false,
          "internalType": "bool",
          "name": "approved",
          "type": "bool"
        }
      ],
      "name": "ApprovalForAll",
      "type": "event"
    },
    {
      "anonymous": false,
      "inputs": [
        {
          "indexed": true,
          "internalType": "address",
          "name": "newContract",
          "type": "address"
        }
      ],
      "name": "GameCoreContractUpdated",
      "type": "event"
    },
    {
      "anonymous": false,
      "inputs": [
        {
          "indexed": true,
          "internalType": "address",
          "name": "previousOwner",
          "type": "address"
        },
        {
          "indexed": true,
          "internalType": "address",
          "name": "newOwner",
          "type": "address"
        }
      ],
      "name": "OwnershipTransferred",
      "type": "event"
    },
    {
      "anonymous": false,
      "inputs": [
        {
          "indexed": true,
          "internalType": "address",
          "name": "from",
          "type": "address"
        },
        {
          "indexed": true,
          "internalType": "address",
          "name": "to",
          "type": "address"
        },
        {
          "indexed": true,
          "internalType": "uint256",
          "name": "tokenId",
          "type": "uint256"
        }
      ],
      "name": "Transfer",
      "type": "event"
    },
    {
      "anonymous": false,
      "inputs": [
        {
          "indexed": true,
          "internalType": "uint256",
          "name": "tokenId",
          "type": "uint256"
        },
        {
          "indexed": true,
          "internalType": "address",
          "name": "owner",
          "type": "address"
        },
        {
          "indexed": false,
          "internalType": "string",
          "name": "weaponType",
          "type": "string"
        }
      ],
      "name": "WeaponMinted",
      "type": "event"
    },
    {
      "inputs": [
        {
          "internalType": "address",
          "name": "to",
          "type": "address"
        },
        {
          "internalType": "uint256",
          "name": "tokenId",
          "type": "uint256"
        }
      ],
      "name": "approve",
      "outputs": [],
      "stateMutability": "nonpayable",
      "type": "function"
    },
    {
      "inputs": [
        {
          "internalType": "address",
          "name": "owner",
          "type": "address"
        }
      ],
      "name": "balanceOf",
      "outputs": [
        {
          "internalType": "uint256",
          "name": "",
          "type": "uint256"
        }
      ],
      "stateMutability": "view",
      "type": "function"
    },
    {
      "inputs": [
        {
          "internalType": "uint256",
          "name": "tokenId",
          "type": "uint256"
        }
      ],
      "name": "exists",
      "outputs": [
        {
          "internalType": "bool",
          "name": "",
          "type": "bool"
        }
      ],
      "stateMutability": "view",
      "type": "function"
    },
    {
      "inputs": [],
      "name": "gameCoreContract",
      "outputs": [
        {
          "internalType": "address",
          "name": "",
          "type": "address"
        }
      ],
      "stateMutability": "view",
      "type": "function"
    },
    {
      "inputs": [
        {
          "internalType": "uint256",
          "name": "tokenId",
          "type": "uint256"
        }
      ],
      "name": "getApproved",
      "outputs": [
        {
          "internalType": "address",
          "name": "",
          "type": "address"
        }
      ],
      "stateMutability": "view",
      "type": "function"
    },
    {
      "inputs": [
        {
          "internalType": "uint256",
          "name": "tokenId",
          "type": "uint256"
        }
      ],
      "name": "getWeaponStats",
      "outputs": [
        {
          "internalType": "uint8",
          "name": "damage",
          "type": "uint8"
        },
        {
          "internalType": "uint8",
          "name": "fireRate",
          "type": "uint8"
        },
        {
          "internalType": "uint8",
          "name": "accuracy",
          "type": "uint8"
        },
        {
          "internalType": "uint8",
          "name": "range",
          "type": "uint8"
        },
        {
          "internalType": "string",
          "name": "weaponType",
          "type": "string"
        }
      ],
      "stateMutability": "view",
      "type": "function"
    },
    {
      "inputs": [
        {
          "internalType": "address",
          "name": "owner",
          "type": "address"
        },
        {
          "internalType": "address",
          "name": "operator",
          "type": "address"
        }
      ],
      "name": "isApprovedForAll",
      "outputs": [
        {
          "internalType": "bool",
          "name": "",
          "type": "bool"
        }
      ],
      "stateMutability": "view",
      "type": "function"
    },
    {
      "inputs": [
        {
          "internalType": "address",
          "name": "to",
          "type": "address"
        },
        {
          "internalType": "string",
          "name": "tokenURI",
          "type": "string"
        },
        {
          "internalType": "uint8",
          "name": "damage",
          "type": "uint8"
        },
        {
          "internalType": "uint8",
          "name": "fireRate",
          "type": "uint8"
        },
        {
          "internalType": "uint8",
          "name": "accuracy",
          "type": "uint8"
        },
        {
          "internalType": "uint8",
          "name": "range",
          "type": "uint8"
        },
        {
          "internalType": "string",
          "name": "weaponType",
          "type": "string"
        }
      ],
      "name": "mintWeapon",
      "outputs": [
        {
          "internalType": "uint256",
          "name": "",
          "type": "uint256"
        }
      ],
      "stateMutability": "nonpayable",
      "type": "function"
    },
    {
      "inputs": [],
      "name": "name",
      "outputs": [
        {
          "internalType": "string",
          "name": "",
          "type": "string"
        }
      ],
      "stateMutability": "view",
      "type": "function"
    },
    {
      "inputs": [],
      "name": "owner",
      "outputs": [
        {
          "internalType": "address",
          "name": "",
          "type": "address"
        }
      ],
      "stateMutability": "view",
      "type": "function"
    },
    {
      "inputs": [
        {
          "internalType": "uint256",
          "name": "tokenId",
          "type": "uint256"
        }
      ],
      "name": "ownerOf",
      "outputs": [
        {
          "internalType": "address",
          "name": "",
          "type": "address"
        }
      ],
      "stateMutability": "view",
      "type": "function"
    },
    {
      "inputs": [],
      "name": "renounceOwnership",
      "outputs": [],
      "stateMutability": "nonpayable",
      "type": "function"
    },
    {
      "inputs": [
        {
          "internalType": "address",
          "name": "from",
          "type": "address"
        },
        {
          "internalType": "address",
          "name": "to",
          "type": "address"
        },
        {
          "internalType": "uint256",
          "name": "tokenId",
          "type": "uint256"
        }
      ],
      "name": "safeTransferFrom",
      "outputs": [],
      "stateMutability": "nonpayable",
      "type": "function"
    },
    {
      "inputs": [
        {
          "internalType": "address",
          "name": "from",
          "type": "address"
        },
        {
          "internalType": "address",
          "name": "to",
          "type": "address"
        },
        {
          "internalType": "uint256",
          "name": "tokenId",
          "type": "uint256"
        },
        {
          "internalType": "bytes",
          "name": "data",
          "type": "bytes"
        }
      ],
      "name": "safeTransferFrom",
      "outputs": [],
      "stateMutability": "nonpayable",
      "type": "function"
    },
    {
      "inputs": [
        {
          "internalType": "address",
          "name": "operator",
          "type": "address"
        },
        {
          "internalType": "bool",
          "name": "approved",
          "type": "bool"
        }
      ],
      "name": "setApprovalForAll",
      "outputs": [],
      "stateMutability": "nonpayable",
      "type": "function"
    },
    {
      "inputs": [
        {
          "internalType": "address",
          "name": "_gameCoreContract",
          "type": "address"
        }
      ],
      "name": "setGameCoreContract",
      "outputs": [],
      "stateMutability": "nonpayable",
      "type": "function"
    },
    {
      "inputs": [
        {
          "internalType": "bytes4",
          "name": "interfaceId",
          "type": "bytes4"
        }
      ],
      "name": "supportsInterface",
      "outputs": [
        {
          "internalType": "bool",
          "name": "",
          "type": "bool"
        }
      ],
      "stateMutability": "view",
      "type": "function"
    },
    {
      "inputs": [],
      "name": "symbol",
      "outputs": [
        {
          "internalType": "string",
          "name": "",
          "type": "string"
        }
      ],
      "stateMutability": "view",
      "type": "function"
    },
    {
      "inputs": [
        {
          "internalType": "uint256",
          "name": "index",
          "type": "uint256"
        }
      ],
      "name": "tokenByIndex",
      "outputs": [
        {
          "internalType": "uint256",
          "name": "",
          "type": "uint256"
        }
      ],
      "stateMutability": "view",
      "type": "function"
    },
    {
      "inputs": [
        {
          "internalType": "address",
          "name": "owner",
          "type": "address"
        },
        {
          "internalType": "uint256",
          "name": "index",
          "type": "uint256"
        }
      ],
      "name": "tokenOfOwnerByIndex",
      "outputs": [
        {
          "internalType": "uint256",
          "name": "",
          "type": "uint256"
        }
      ],
      "stateMutability": "view",
      "type": "function"
    },
    {
      "inputs": [
        {
          "internalType": "uint256",
          "name": "tokenId",
          "type": "uint256"
        }
      ],
      "name": "tokenURI",
      "outputs": [
        {
          "internalType": "string",
          "name": "",
          "type": "string"
        }
      ],
      "stateMutability": "view",
      "type": "function"
    },
    {
      "inputs": [],
      "name": "totalSupply",
      "outputs": [
        {
          "internalType": "uint256",
          "name": "",
          "type": "uint256"
        }
      ],
      "stateMutability": "view",
      "type": "function"
    },
    {
      "inputs": [
        {
          "internalType": "address",
          "name": "from",
          "type": "address"
        },
        {
          "internalType": "address",
          "name": "to",
          "type": "address"
        },
        {
          "internalType": "uint256",
          "name": "tokenId",
          "type": "uint256"
        }
      ],
      "name": "transferFrom",
      "outputs": [],
      "stateMutability": "nonpayable",
      "type": "function"
    },
    {
      "inputs": [
        {
          "internalType": "address",
          "name": "newOwner",
          "type": "address"
        }
      ],
      "name": "transferOwnership",
      "outputs": [],
      "stateMutability": "nonpayable",
      "type": "function"
    }
  ],
  "bytecode": "0x608060405234801561001057600080fd5b506040518060400160405280601281526020017f4d6f6e6164204172656e6120576561706f6e00000000000000000000000000008152506040518060400160405280600381526020017f4d41570000000000000000000000000000000000000000000000000000000000815250816000908161008c91906103de565b50806001908161009c91906103de565b5050506100bb6100b06100c060201b60201c565b6100c860201b60201c565b6104b0565b600033905090565b6000600a60009054906101000a900473ffffffffffffffffffffffffffffffffffffffff16905081600a60006101000a81548173ffffffffffffffffffffffffffffffffffffffff021916908373ffffffffffffffffffffffffffffffffffffffff1602179055508173ffffffffffffffffffffffffffffffffffffffff168173ffffffffffffffffffffffffffffffffffffffff167f8be0079c531659141344cd1fd0a4f28419497f9722a3daafe3b4186f6b6457e060405160405180910390a35050565b600081519050919050565b7f4e487b7100000000000000000000000000000000000000000000000000000000600052604160045260246000fd5b7f4e487b7100000000000000000000000000000000000000000000000000000000600052602260045260246000fd5b6000600282049050600182168061020f57607f821691505b602082108103610222576102216101c8565b5b50919050565b60008190508160005260206000209050919050565b60006020601f8301049050919050565b600082821b905092915050565b60006008830261028a7fffffffffffffffffffffffffffffffffffffffffffffffffffffffffffffffff8261024d565b610294868361024d565b95508019841693508086168417925050509392505050565b6000819050919050565b6000819050919050565b60006102db6102d66102d1846102ac565b6102b6565b6102ac565b9050919050565b6000819050919050565b6102f5836102c0565b610309610301826102e2565b84845461025a565b825550505050565b600090565b61031e610311565b6103298184846102ec565b505050565b5b8181101561034d57610342600082610316565b60018101905061032f565b5050565b601f8211156103925761036381610228565b61036c8461023d565b8101602085101561037b578190505b61038f6103878561023d565b83018261032e565b50505b505050565b600082821c905092915050565b60006103b560001984600802610397565b1980831691505092915050565b60006103ce83836103a4565b9150826002028217905092915050565b6103e78261018e565b67ffffffffffffffff811115610400576103ff610199565b5b61040a82546101f7565b610415828285610351565b600060209050601f8311600181146104485760008415610436578287015190505b61044085826103c2565b8655506104a8565b601f19841661045686610228565b60005b8281101561047e57848901518255600182019150602085019450602081019050610459565b8683101561049b5784890151610497601f8916826103a4565b8355505b6001600288020188555050505b505050505050565b613b64806104bf6000396000f3fe608060405234801561001057600080fd5b50600436106101585760003560e01c80636352211e116100c3578063a22cb4651161007c578063a22cb465146103f1578063b88d4fde1461040d578063c87b56dd14610429578063e0a8661614610459578063e985e9c514610489578063f2fde38b146104b957610158565b80636352211e1461031757806363ff22871461034757806370a082311461037b578063715018a6146103ab5780638da5cb5b146103b557806395d89b41146103d357610158565b806323b872dd1161011557806323b872dd146102315780632748ecae1461024d5780632f745c591461026b57806342842e0e1461029b5780634f558e79146102b75780634f6ccce7146102e757610158565b806301ffc9a71461015d57806306fdde031461018d578063081812fc146101ab578063095ea7b3146101db5780631765a3a3146101f757806318160ddd14610213575b600080fd5b6101776004803603810190610172919061252f565b6104d5565b6040516101849190612577565b60405180910390f35b61019561054f565b6040516101a29190612622565b60405180910390f35b6101c560048036038101906101c0919061267a565b6105e1565b6040516101d291906126e8565b60405180910390f35b6101f560048036038101906101f0919061272f565b610627565b005b610211600480360381019061020c919061276f565b61073e565b005b61021b6107cd565b60405161022891906127ab565b60405180910390f35b61024b600480360381019061024691906127c6565b6107da565b005b61025561083a565b60405161026291906126e8565b60405180910390f35b6102856004803603810190610280919061272f565b610860565b60405161029291906127ab565b60405180910390f35b6102b560048036038101906102b091906127c6565b610905565b005b6102d160048036038101906102cc919061267a565b610925565b6040516102de9190612577565b60405180910390f35b61030160048036038101906102fc919061267a565b610937565b60405161030e91906127ab565b60405180910390f35b610331600480360381019061032c919061267a565b6109a8565b60405161033e91906126e8565b60405180910390f35b610361600480360381019061035c919061267a565b610a2e565b604051610372959493929190612835565b60405180910390f35b6103956004803603810190610390919061276f565b610bd3565b6040516103a291906127ab565b60405180910390f35b6103b3610c8a565b005b6103bd610c9e565b6040516103ca91906126e8565b60405180910390f35b6103db610cc8565b6040516103e89190612622565b60405180910390f35b61040b600480360381019061040691906128bb565b610d5a565b005b61042760048036038101906104229190612a30565b610d70565b005b610443600480360381019061043e919061267a565b610dd2565b6040516104509190612622565b60405180910390f35b610473600480360381019061046e9190612b80565b610ebf565b60405161048091906127ab565b60405180910390f35b6104a3600480360381019061049e9190612c5a565b6110fb565b6040516104b09190612577565b60405180910390f35b6104d360048036038101906104ce919061276f565b61118f565b005b60007f780e9d63000000000000000000000000000000000000000000000000000000007bffffffffffffffffffffffffffffffffffffffffffffffffffffffff1916827bffffffffffffffffffffffffffffffffffffffffffffffffffffffff19161480610548575061054782611212565b5b9050919050565b60606000805461055e90612cc9565b80601f016020809104026020016040519081016040528092919081815260200182805461058a90612cc9565b80156105d75780601f106105ac576101008083540402835291602001916105d7565b820191906000526020600020905b8154815290600101906020018083116105ba57829003601f168201915b5050505050905090565b60006105ec826112f4565b6004600083815260200190815260200160002060009054906101000a900473ffffffffffffffffffffffffffffffffffffffff169050919050565b6000610632826109a8565b90508073ffffffffffffffffffffffffffffffffffffffff168373ffffffffffffffffffffffffffffffffffffffff16036106a2576040517f08c379a000000000000000000000000000000000000000000000000000000000815260040161069990612d6c565b60405180910390fd5b8073ffffffffffffffffffffffffffffffffffffffff166106c161133f565b73ffffffffffffffffffffffffffffffffffffffff1614806106f057506106ef816106ea61133f565b6110fb565b5b61072f576040517f08c379a000000000000000000000000000000000000000000000000000000000815260040161072690612dfe565b60405180910390fd5b6107398383611347565b505050565b610746611400565b80600c60006101000a81548173ffffffffffffffffffffffffffffffffffffffff021916908373ffffffffffffffffffffffffffffffffffffffff1602179055508073ffffffffffffffffffffffffffffffffffffffff167f505050634b3c3660aaf2c89815af97e63af5e51ad15f2614dad575a625b4408260405160405180910390a250565b6000600880549050905090565b6107eb6107e561133f565b8261147e565b61082a576040517f08c379a000000000000000000000000000000000000000000000000000000000815260040161082190612e90565b60405180910390fd5b610835838383611513565b505050565b600c60009054906101000a900473ffffffffffffffffffffffffffffffffffffffff1681565b600061086b83610bd3565b82106108ac576040517f08c379a00000000000000000000000000000000000000000000000000000000081526004016108a390612f22565b60405180910390fd5b600660008473ffffffffffffffffffffffffffffffffffffffff1673ffffffffffffffffffffffffffffffffffffffff168152602001908152602001600020600083815260200190815260200160002054905092915050565b61092083838360405180602001604052806000815250610d70565b505050565b60006109308261180c565b9050919050565b60006109416107cd565b8210610982576040517f08c379a000000000000000000000000000000000000000000000000000000000815260040161097990612fb4565b60405180910390fd5b6008828154811061099657610995612fd4565b5b90600052602060002001549050919050565b6000806109b48361184d565b9050600073ffffffffffffffffffffffffffffffffffffffff168173ffffffffffffffffffffffffffffffffffffffff1603610a25576040517f08c379a0000000000000000000000000000000000000000000000000000000008152600401610a1c9061304f565b60405180910390fd5b80915050919050565b6000806000806060610a3f8661180c565b610a7e576040517f08c379a0000000000000000000000000000000000000000000000000000000008152600401610a75906130bb565b60405180910390fd5b6000600d60008881526020019081526020016000206040518060a00160405290816000820160009054906101000a900460ff1660ff1660ff1681526020016000820160019054906101000a900460ff1660ff1660ff1681526020016000820160029054906101000a900460ff1660ff1660ff1681526020016000820160039054906101000a900460ff1660ff1660ff168152602001600182018054610b2290612cc9565b80601f0160208091040260200160405190810160405280929190818152602001828054610b4e90612cc9565b8015610b9b5780601f10610b7057610100808354040283529160200191610b9b565b820191906000526020600020905b815481529060010190602001808311610b7e57829003601f168201915b505050505081525050905080600001518160200151826040015183606001518460800151955095509550955095505091939590929450565b60008073ffffffffffffffffffffffffffffffffffffffff168273ffffffffffffffffffffffffffffffffffffffff1603610c43576040517f08c379a0000000000000000000000000000000000000000000000000000000008152600401610c3a9061314d565b60405180910390fd5b600360008373ffffffffffffffffffffffffffffffffffffffff1673ffffffffffffffffffffffffffffffffffffffff168152602001908152602001600020549050919050565b610c92611400565b610c9c600061188a565b565b6000600a60009054906101000a900473ffffffffffffffffffffffffffffffffffffffff16905090565b606060018054610cd790612cc9565b80601f0160208091040260200160405190810160405280929190818152602001828054610d0390612cc9565b8015610d505780601f10610d2557610100808354040283529160200191610d50565b820191906000526020600020905b815481529060010190602001808311610d3357829003601f168201915b5050505050905090565b610d6c610d6561133f565b8383611950565b5050565b610d81610d7b61133f565b8361147e565b610dc0576040517f08c379a0000000000000000000000000000000000000000000000000000000008152600401610db790612e90565b60405180910390fd5b610dcc84848484611abc565b50505050565b6060610ddd8261180c565b610e1c576040517f08c379a0000000000000000000000000000000000000000000000000000000008152600401610e13906131b9565b60405180910390fd5b600e60008381526020019081526020016000208054610e3a90612cc9565b80601f0160208091040260200160405190810160405280929190818152602001828054610e6690612cc9565b8015610eb35780601f10610e8857610100808354040283529160200191610eb3565b820191906000526020600020905b815481529060010190602001808311610e9657829003601f168201915b50505050509050919050565b6000610ec9610c9e565b73ffffffffffffffffffffffffffffffffffffffff163373ffffffffffffffffffffffffffffffffffffffff161480610f4f5750600c60009054906101000a900473ffffffffffffffffffffffffffffffffffffffff1673ffffffffffffffffffffffffffffffffffffffff163373ffffffffffffffffffffffffffffffffffffffff16145b610f8e576040517f08c379a0000000000000000000000000000000000000000000000000000000008152600401610f8590613225565b60405180910390fd5b610f98600b611b18565b6000610fa4600b611b2e565b9050610fb08982611b3c565b610fba8189611b5a565b6040518060a001604052808860ff1681526020018760ff1681526020018660ff1681526020018560ff16815260200184815250600d600083815260200190815260200160002060008201518160000160006101000a81548160ff021916908360ff16021790555060208201518160000160016101000a81548160ff021916908360ff16021790555060408201518160000160026101000a81548160ff021916908360ff16021790555060608201518160000160036101000a81548160ff021916908360ff160217905550608082015181600101908161109991906133f1565b509050508873ffffffffffffffffffffffffffffffffffffffff16817f36ec08540f60749647fc73fc329c67e271b12a29d51dcfe16b5e05cccd7f0c33856040516110e49190612622565b60405180910390a380915050979650505050505050565b6000600560008473ffffffffffffffffffffffffffffffffffffffff1673ffffffffffffffffffffffffffffffffffffffff16815260200190815260200160002060008373ffffffffffffffffffffffffffffffffffffffff1673ffffffffffffffffffffffffffffffffffffffff16815260200190815260200160002060009054906101000a900460ff16905092915050565b611197611400565b600073ffffffffffffffffffffffffffffffffffffffff168173ffffffffffffffffffffffffffffffffffffffff1603611206576040517f08c379a00000000000000000000000000000000000000000000000000000000081526004016111fd90613535565b60405180910390fd5b61120f8161188a565b50565b60007f80ac58cd000000000000000000000000000000000000000000000000000000007bffffffffffffffffffffffffffffffffffffffffffffffffffffffff1916827bffffffffffffffffffffffffffffffffffffffffffffffffffffffff191614806112dd57507f5b5e139f000000000000000000000000000000000000000000000000000000007bffffffffffffffffffffffffffffffffffffffffffffffffffffffff1916827bffffffffffffffffffffffffffffffffffffffffffffffffffffffff1916145b806112ed57506112ec82611bc7565b5b9050919050565b6112fd8161180c565b61133c576040517f08c379a00000000000000000000000000000000000000000000000000000000081526004016113339061304f565b60405180910390fd5b50565b600033905090565b816004600083815260200190815260200160002060006101000a81548173ffffffffffffffffffffffffffffffffffffffff021916908373ffffffffffffffffffffffffffffffffffffffff160217905550808273ffffffffffffffffffffffffffffffffffffffff166113ba836109a8565b73ffffffffffffffffffffffffffffffffffffffff167f8c5be1e5ebec7d5bd14f71427d1e84f3dd0314c0f7b2291e5b200ac8c7c3b92560405160405180910390a45050565b61140861133f565b73ffffffffffffffffffffffffffffffffffffffff16611426610c9e565b73ffffffffffffffffffffffffffffffffffffffff161461147c576040517f08c379a0000000000000000000000000000000000000000000000000000000008152600401611473906135a1565b60405180910390fd5b565b60008061148a836109a8565b90508073ffffffffffffffffffffffffffffffffffffffff168473ffffffffffffffffffffffffffffffffffffffff1614806114cc57506114cb81856110fb565b5b8061150a57508373ffffffffffffffffffffffffffffffffffffffff166114f2846105e1565b73ffffffffffffffffffffffffffffffffffffffff16145b91505092915050565b8273ffffffffffffffffffffffffffffffffffffffff16611533826109a8565b73ffffffffffffffffffffffffffffffffffffffff1614611589576040517f08c379a000000000000000000000000000000000000000000000000000000000815260040161158090613633565b60405180910390fd5b600073ffffffffffffffffffffffffffffffffffffffff168273ffffffffffffffffffffffffffffffffffffffff16036115f8576040517f08c379a00000000000000000000000000000000000000000000000000000000081526004016115ef906136c5565b60405180910390fd5b6116058383836001611c31565b8273ffffffffffffffffffffffffffffffffffffffff16611625826109a8565b73ffffffffffffffffffffffffffffffffffffffff161461167b576040517f08c379a000000000000000000000000000000000000000000000000000000000815260040161167290613633565b60405180910390fd5b6004600082815260200190815260200160002060006101000a81549073ffffffffffffffffffffffffffffffffffffffff02191690556001600360008573ffffffffffffffffffffffffffffffffffffffff1673ffffffffffffffffffffffffffffffffffffffff168152602001908152602001600020600082825403925050819055506001600360008473ffffffffffffffffffffffffffffffffffffffff1673ffffffffffffffffffffffffffffffffffffffff16815260200190815260200160002060008282540192505081905550816002600083815260200190815260200160002060006101000a81548173ffffffffffffffffffffffffffffffffffffffff021916908373ffffffffffffffffffffffffffffffffffffffff160217905550808273ffffffffffffffffffffffffffffffffffffffff168473ffffffffffffffffffffffffffffffffffffffff167fddf252ad1be2c89b69c2b068fc378daa952ba7f163c4a11628f55a4df523b3ef60405160405180910390a46118078383836001611d8f565b505050565b60008073ffffffffffffffffffffffffffffffffffffffff1661182e8361184d565b73ffffffffffffffffffffffffffffffffffffffff1614159050919050565b60006002600083815260200190815260200160002060009054906101000a900473ffffffffffffffffffffffffffffffffffffffff169050919050565b6000600a60009054906101000a900473ffffffffffffffffffffffffffffffffffffffff16905081600a60006101000a81548173ffffffffffffffffffffffffffffffffffffffff021916908373ffffffffffffffffffffffffffffffffffffffff1602179055508173ffffffffffffffffffffffffffffffffffffffff168173ffffffffffffffffffffffffffffffffffffffff167f8be0079c531659141344cd1fd0a4f28419497f9722a3daafe3b4186f6b6457e060405160405180910390a35050565b8173ffffffffffffffffffffffffffffffffffffffff168373ffffffffffffffffffffffffffffffffffffffff16036119be576040517f08c379a00000000000000000000000000000000000000000000000000000000081526004016119b590613731565b60405180910390fd5b80600560008573ffffffffffffffffffffffffffffffffffffffff1673ffffffffffffffffffffffffffffffffffffffff16815260200190815260200160002060008473ffffffffffffffffffffffffffffffffffffffff1673ffffffffffffffffffffffffffffffffffffffff16815260200190815260200160002060006101000a81548160ff0219169083151502179055508173ffffffffffffffffffffffffffffffffffffffff168373ffffffffffffffffffffffffffffffffffffffff167f17307eab39ab6107e8899845ad3d59bd9653f200f220920489ca2b5937696c3183604051611aaf9190612577565b60405180910390a3505050565b611ac7848484611513565b611ad384848484611d95565b611b12576040517f08c379a0000000000000000000000000000000000000000000000000000000008152600401611b09906137c3565b60405180910390fd5b50505050565b6001816000016000828254019250508190555050565b600081600001549050919050565b611b56828260405180602001604052806000815250611f1c565b5050565b611b638261180c565b611ba2576040517f08c379a0000000000000000000000000000000000000000000000000000000008152600401611b999061382f565b60405180910390fd5b80600e60008481526020019081526020016000209081611bc291906133f1565b505050565b60007f01ffc9a7000000000000000000000000000000000000000000000000000000007bffffffffffffffffffffffffffffffffffffffffffffffffffffffff1916827bffffffffffffffffffffffffffffffffffffffffffffffffffffffff1916149050919050565b611c3d84848484611f77565b6001811115611c81576040517f08c379a0000000000000000000000000000000000000000000000000000000008152600401611c78906138c1565b60405180910390fd5b6000829050600073ffffffffffffffffffffffffffffffffffffffff168573ffffffffffffffffffffffffffffffffffffffff1603611cc857611cc381611f7d565b611d07565b8373ffffffffffffffffffffffffffffffffffffffff168573ffffffffffffffffffffffffffffffffffffffff1614611d0657611d058582611fc6565b5b5b600073ffffffffffffffffffffffffffffffffffffffff168473ffffffffffffffffffffffffffffffffffffffff1603611d4957611d4481612133565b611d88565b8473ffffffffffffffffffffffffffffffffffffffff168473ffffffffffffffffffffffffffffffffffffffff1614611d8757611d868482612204565b5b5b5050505050565b50505050565b6000611db68473ffffffffffffffffffffffffffffffffffffffff16612283565b15611f0f578373ffffffffffffffffffffffffffffffffffffffff1663150b7a02611ddf61133f565b8786866040518563ffffffff1660e01b8152600401611e019493929190613936565b6020604051808303816000875af1925050508015611e3d57506040513d601f19601f82011682018060405250810190611e3a9190613997565b60015b611ebf573d8060008114611e6d576040519150601f19603f3d011682016040523d82523d6000602084013e611e72565b606091505b506000815103611eb7576040517f08c379a0000000000000000000000000000000000000000000000000000000008152600401611eae906137c3565b60405180910390fd5b805181602001fd5b63150b7a0260e01b7bffffffffffffffffffffffffffffffffffffffffffffffffffffffff1916817bffffffffffffffffffffffffffffffffffffffffffffffffffffffff191614915050611f14565b600190505b949350505050565b611f2683836122a6565b611f336000848484611d95565b611f72576040517f08c379a0000000000000000000000000000000000000000000000000000000008152600401611f69906137c3565b60405180910390fd5b505050565b50505050565b6008805490506009600083815260200190815260200160002081905550600881908060018154018082558091505060019003906000526020600020016000909190919091505550565b60006001611fd384610bd3565b611fdd91906139f3565b90506000600760008481526020019081526020016000205490508181146120c2576000600660008673ffffffffffffffffffffffffffffffffffffffff1673ffffffffffffffffffffffffffffffffffffffff168152602001908152602001600020600084815260200190815260200160002054905080600660008773ffffffffffffffffffffffffffffffffffffffff1673ffffffffffffffffffffffffffffffffffffffff168152602001908152602001600020600084815260200190815260200160002081905550816007600083815260200190815260200160002081905550505b6007600084815260200190815260200160002060009055600660008573ffffffffffffffffffffffffffffffffffffffff1673ffffffffffffffffffffffffffffffffffffffff16815260200190815260200160002060008381526020019081526020016000206000905550505050565b6000600160088054905061214791906139f3565b905060006009600084815260200190815260200160002054905060006008838154811061217757612176612fd4565b5b90600052602060002001549050806008838154811061219957612198612fd4565b5b9060005260206000200181905550816009600083815260200190815260200160002081905550600960008581526020019081526020016000206000905560088054806121e8576121e7613a27565b5b6001900381819060005260206000200160009055905550505050565b600061220f83610bd3565b905081600660008573ffffffffffffffffffffffffffffffffffffffff1673ffffffffffffffffffffffffffffffffffffffff168152602001908152602001600020600083815260200190815260200160002081905550806007600084815260200190815260200160002081905550505050565b6000808273ffffffffffffffffffffffffffffffffffffffff163b119050919050565b600073ffffffffffffffffffffffffffffffffffffffff168273ffffffffffffffffffffffffffffffffffffffff1603612315576040517f08c379a000000000000000000000000000000000000000000000000000000000815260040161230c90613aa2565b60405180910390fd5b61231e8161180c565b1561235e576040517f08c379a000000000000000000000000000000000000000000000000000000000815260040161235590613b0e565b60405180910390fd5b61236c600083836001611c31565b6123758161180c565b156123b5576040517f08c379a00000000000000000000000000000000000000000000000000000000081526004016123ac90613b0e565b60405180910390fd5b6001600360008473ffffffffffffffffffffffffffffffffffffffff1673ffffffffffffffffffffffffffffffffffffffff16815260200190815260200160002060008282540192505081905550816002600083815260200190815260200160002060006101000a81548173ffffffffffffffffffffffffffffffffffffffff021916908373ffffffffffffffffffffffffffffffffffffffff160217905550808273ffffffffffffffffffffffffffffffffffffffff16600073ffffffffffffffffffffffffffffffffffffffff167fddf252ad1be2c89b69c2b068fc378daa952ba7f163c4a11628f55a4df523b3ef60405160405180910390a46124bf600083836001611d8f565b5050565b6000604051905090565b600080fd5b600080fd5b60007fffffffff0000000000000000000000000000000000000000000000000000000082169050919050565b61250c816124d7565b811461251757600080fd5b50565b60008135905061252981612503565b92915050565b600060208284031215612545576125446124cd565b5b60006125538482850161251a565b91505092915050565b60008115159050919050565b6125718161255c565b82525050565b600060208201905061258c6000830184612568565b92915050565b600081519050919050565b600082825260208201905092915050565b60005b838110156125cc5780820151818401526020810190506125b1565b60008484015250505050565b6000601f19601f8301169050919050565b60006125f482612592565b6125fe818561259d565b935061260e8185602086016125ae565b612617816125d8565b840191505092915050565b6000602082019050818103600083015261263c81846125e9565b905092915050565b6000819050919050565b61265781612644565b811461266257600080fd5b50565b6000813590506126748161264e565b92915050565b6000602082840312156126905761268f6124cd565b5b600061269e84828501612665565b91505092915050565b600073ffffffffffffffffffffffffffffffffffffffff82169050919050565b60006126d2826126a7565b9050919050565b6126e2816126c7565b82525050565b60006020820190506126fd60008301846126d9565b92915050565b61270c816126c7565b811461271757600080fd5b50565b60008135905061272981612703565b92915050565b60008060408385031215612746576127456124cd565b5b60006127548582860161271a565b925050602061276585828601612665565b9150509250929050565b600060208284031215612785576127846124cd565b5b60006127938482850161271a565b91505092915050565b6127a581612644565b82525050565b60006020820190506127c0600083018461279c565b92915050565b6000806000606084860312156127df576127de6124cd565b5b60006127ed8682870161271a565b93505060206127fe8682870161271a565b925050604061280f86828701612665565b9150509250925092565b600060ff82169050919050565b61282f81612819565b82525050565b600060a08201905061284a6000830188612826565b6128576020830187612826565b6128646040830186612826565b6128716060830185612826565b818103608083015261288381846125e9565b90509695505050505050565b6128988161255c565b81146128a357600080fd5b50565b6000813590506128b58161288f565b92915050565b600080604083850312156128d2576128d16124cd565b5b60006128e08582860161271a565b92505060206128f1858286016128a6565b9150509250929050565b600080fd5b600080fd5b7f4e487b7100000000000000000000000000000000000000000000000000000000600052604160045260246000fd5b61293d826125d8565b810181811067ffffffffffffffff8211171561295c5761295b612905565b5b80604052505050565b600061296f6124c3565b905061297b8282612934565b919050565b600067ffffffffffffffff82111561299b5761299a612905565b5b6129a4826125d8565b9050602081019050919050565b82818337600083830152505050565b60006129d36129ce84612980565b612965565b9050828152602081018484840111156129ef576129ee612900565b5b6129fa8482856129b1565b509392505050565b600082601f830112612a1757612a166128fb565b5b8135612a278482602086016129c0565b91505092915050565b60008060008060808587031215612a4a57612a496124cd565b5b6000612a588782880161271a565b9450506020612a698782880161271a565b9350506040612a7a87828801612665565b925050606085013567ffffffffffffffff811115612a9b57612a9a6124d2565b5b612aa787828801612a02565b91505092959194509250565b600067ffffffffffffffff821115612ace57612acd612905565b5b612ad7826125d8565b9050602081019050919050565b6000612af7612af284612ab3565b612965565b905082815260208101848484011115612b1357612b12612900565b5b612b1e8482856129b1565b509392505050565b600082601f830112612b3b57612b3a6128fb565b5b8135612b4b848260208601612ae4565b91505092915050565b612b5d81612819565b8114612b6857600080fd5b50565b600081359050612b7a81612b54565b92915050565b600080600080600080600060e0888a031215612b9f57612b9e6124cd565b5b6000612bad8a828b0161271a565b975050602088013567ffffffffffffffff811115612bce57612bcd6124d2565b5b612bda8a828b01612b26565b9650506040612beb8a828b01612b6b565b9550506060612bfc8a828b01612b6b565b9450506080612c0d8a828b01612b6b565b93505060a0612c1e8a828b01612b6b565b92505060c088013567ffffffffffffffff811115612c3f57612c3e6124d2565b5b612c4b8a828b01612b26565b91505092959891949750929550565b60008060408385031215612c7157612c706124cd565b5b6000612c7f8582860161271a565b9250506020612c908582860161271a565b9150509250929050565b7f4e487b7100000000000000000000000000000000000000000000000000000000600052602260045260246000fd5b60006002820490506001821680612ce157607f821691505b602082108103612cf457612cf3612c9a565b5b50919050565b7f4552433732313a20617070726f76616c20746f2063757272656e74206f776e6560008201527f7200000000000000000000000000000000000000000000000000000000000000602082015250565b6000612d5660218361259d565b9150612d6182612cfa565b604082019050919050565b60006020820190508181036000830152612d8581612d49565b9050919050565b7f4552433732313a20617070726f76652063616c6c6572206973206e6f7420746f60008201527f6b656e206f776e6572206f7220617070726f76656420666f7220616c6c000000602082015250565b6000612de8603d8361259d565b9150612df382612d8c565b604082019050919050565b60006020820190508181036000830152612e1781612ddb565b9050919050565b7f4552433732313a2063616c6c6572206973206e6f7420746f6b656e206f776e6560008201527f72206f7220617070726f76656400000000000000000000000000000000000000602082015250565b6000612e7a602d8361259d565b9150612e8582612e1e565b604082019050919050565b60006020820190508181036000830152612ea981612e6d565b9050919050565b7f455243373231456e756d657261626c653a206f776e657220696e646578206f7560008201527f74206f6620626f756e6473000000000000000000000000000000000000000000602082015250565b6000612f0c602b8361259d565b9150612f1782612eb0565b604082019050919050565b60006020820190508181036000830152612f3b81612eff565b9050919050565b7f455243373231456e756d657261626c653a20676c6f62616c20696e646578206f60008201527f7574206f6620626f756e64730000000000000000000000000000000000000000602082015250565b6000612f9e602c8361259d565b9150612fa982612f42565b604082019050919050565b60006020820190508181036000830152612fcd81612f91565b9050919050565b7f4e487b7100000000000000000000000000000000000000000000000000000000600052603260045260246000fd5b7f4552433732313a20696e76616c696420746f6b656e2049440000000000000000600082015250565b600061303960188361259d565b915061304482613003565b602082019050919050565b600060208201905081810360008301526130688161302c565b9050919050565b7f576561706f6e20646f6573206e6f742065786973740000000000000000000000600082015250565b60006130a560158361259d565b91506130b08261306f565b602082019050919050565b600060208201905081810360008301526130d481613098565b9050919050565b7f4552433732313a2061646472657373207a65726f206973206e6f74206120766160008201527f6c6964206f776e65720000000000000000000000000000000000000000000000602082015250565b600061313760298361259d565b9150613142826130db565b604082019050919050565b600060208201905081810360008301526131668161312a565b9050919050565b7f55524920717565727920666f72206e6f6e6578697374656e7420746f6b656e00600082015250565b60006131a3601f8361259d565b91506131ae8261316d565b602082019050919050565b600060208201905081810360008301526131d281613196565b9050919050565b7f4f6e6c79206f776e6572206f722067616d6520636f72652063616e206d696e74600082015250565b600061320f60208361259d565b915061321a826131d9565b602082019050919050565b6000602082019050818103600083015261323e81613202565b9050919050565b60008190508160005260206000209050919050565b60006020601f8301049050919050565b600082821b905092915050565b6000600883026132a77fffffffffffffffffffffffffffffffffffffffffffffffffffffffffffffffff8261326a565b6132b1868361326a565b95508019841693508086168417925050509392505050565b6000819050919050565b60006132ee6132e96132e484612644565b6132c9565b612644565b9050919050565b6000819050919050565b613308836132d3565b61331c613314826132f5565b848454613277565b825550505050565b600090565b613331613324565b61333c8184846132ff565b505050565b5b8181101561336057613355600082613329565b600181019050613342565b5050565b601f8211156133a55761337681613245565b61337f8461325a565b8101602085101561338e578190505b6133a261339a8561325a565b830182613341565b50505b505050565b600082821c905092915050565b60006133c8600019846008026133aa565b1980831691505092915050565b60006133e183836133b7565b9150826002028217905092915050565b6133fa82612592565b67ffffffffffffffff81111561341357613412612905565b5b61341d8254612cc9565b613428828285613364565b600060209050601f83116001811461345b5760008415613449578287015190505b61345385826133d5565b8655506134bb565b601f19841661346986613245565b60005b828110156134915784890151825560018201915060208501945060208101905061346c565b868310156134ae57848901516134aa601f8916826133b7565b8355505b6001600288020188555050505b505050505050565b7f4f776e61626c653a206e6577206f776e657220697320746865207a65726f206160008201527f6464726573730000000000000000000000000000000000000000000000000000602082015250565b600061351f60268361259d565b915061352a826134c3565b604082019050919050565b6000602082019050818103600083015261354e81613512565b9050919050565b7f4f776e61626c653a2063616c6c6572206973206e6f7420746865206f776e6572600082015250565b600061358b60208361259d565b915061359682613555565b602082019050919050565b600060208201905081810360008301526135ba8161357e565b9050919050565b7f4552433732313a207472616e736665722066726f6d20696e636f72726563742060008201527f6f776e6572000000000000000000000000000000000000000000000000000000602082015250565b600061361d60258361259d565b9150613628826135c1565b604082019050919050565b6000602082019050818103600083015261364c81613610565b9050919050565b7f4552433732313a207472616e7366657220746f20746865207a65726f2061646460008201527f7265737300000000000000000000000000000000000000000000000000000000602082015250565b60006136af60248361259d565b91506136ba82613653565b604082019050919050565b600060208201905081810360008301526136de816136a2565b9050919050565b7f4552433732313a20617070726f766520746f2063616c6c657200000000000000600082015250565b600061371b60198361259d565b9150613726826136e5565b602082019050919050565b6000602082019050818103600083015261374a8161370e565b9050919050565b7f4552433732313a207472616e7366657220746f206e6f6e20455243373231526560008201527f63656976657220696d706c656d656e7465720000000000000000000000000000602082015250565b60006137ad60328361259d565b91506137b882613751565b604082019050919050565b600060208201905081810360008301526137dc816137a0565b9050919050565b7f5552492073657420666f72206e6f6e6578697374656e7420746f6b656e000000600082015250565b6000613819601d8361259d565b9150613824826137e3565b602082019050919050565b600060208201905081810360008301526138488161380c565b9050919050565b7f455243373231456e756d657261626c653a20636f6e736563757469766520747260008201527f616e7366657273206e6f7420737570706f727465640000000000000000000000602082015250565b60006138ab60358361259d565b91506138b68261384f565b604082019050919050565b600060208201905081810360008301526138da8161389e565b9050919050565b600081519050919050565b600082825260208201905092915050565b6000613908826138e1565b61391281856138ec565b93506139228185602086016125ae565b61392b816125d8565b840191505092915050565b600060808201905061394b60008301876126d9565b61395860208301866126d9565b613965604083018561279c565b818103606083015261397781846138fd565b905095945050505050565b60008151905061399181612503565b92915050565b6000602082840312156139ad576139ac6124cd565b5b60006139bb84828501613982565b91505092915050565b7f4e487b7100000000000000000000000000000000000000000000000000000000600052601160045260246000fd5b60006139fe82612644565b9150613a0983612644565b9250828203905081811115613a2157613a206139c4565b5b92915050565b7f4e487b7100000000000000000000000000000000000000000000000000000000600052603160045260246000fd5b7f4552433732313a206d696e7420746f20746865207a65726f2061646472657373600082015250565b6000613a8c60208361259d565b9150613a9782613a56565b602082019050919050565b60006020820190508181036000830152613abb81613a7f565b9050919050565b7f4552433732313a20746f6b656e20616c7265616479206d696e74656400000000600082015250565b6000613af8601c8361259d565b9150613b0382613ac2565b602082019050919050565b60006020820190508181036000830152613b2781613aeb565b905091905056fea264697066735822122002fd7fc9b286f3f756dc7a54338256bdb885a34a8c7ab08c5b14ec17b5a2cda064736f6c634300081c0033",
  "linkReferences": {},
  "deployedLinkReferences": {}
}