{
  "_format": "hh-sol-artifact-1",
  "contractName": "MonadArenaCore",
  "sourceName": "contracts/MonadArenaCore.sol",
  "abi": [
    {
      "inputs": [
        {
          "internalType": "address",
          "name": "_tokenContract",
          "type": "address"
        },
        {
          "internalType": "address",
          "name": "_nftContract",
          "type": "address"
        }
      ],
      "stateMutability": "nonpayable",
      "type": "constructor"
    },
    {
      "anonymous": false,
      "inputs": [
        {
          "indexed": true,
          "internalType": "bytes32",
          "name": "gameId",
          "type": "bytes32"
        },
        {
          "indexed": false,
          "internalType": "uint256",
          "name": "startTime",
          "type": "uint256"
        }
      ],
      "name": "GameSessionCreated",
      "type": "event"
    },
    {
      "anonymous": false,
      "inputs": [
        {
          "indexed": true,
          "internalType": "bytes32",
          "name": "gameId",
          "type": "bytes32"
        },
        {
          "indexed": false,
          "internalType": "uint256",
          "name": "endTime",
          "type": "uint256"
        }
      ],
      "name": "GameSessionEnded",
      "type": "event"
    },
    {
      "anonymous": false,
      "inputs": [
        {
          "indexed": true,
          "internalType": "address",
          "name": "player",
          "type": "address"
        },
        {
          "indexed": false,
          "internalType": "uint256",
          "name": "tokenId",
          "type": "uint256"
        }
      ],
      "name": "NFTRewarded",
      "type": "event"
    },
    {
      "anonymous": false,
      "inputs": [
        {
          "indexed": true,
          "internalType": "address",
          "name": "previousOwner",
          "type": "address"
        },
        {
          "indexed": true,
          "internalType": "address",
          "name": "newOwner",
          "type": "address"
        }
      ],
      "name": "OwnershipTransferred",
      "type": "event"
    },
    {
      "anonymous": false,
      "inputs": [
        {
          "indexed": true,
          "internalType": "bytes32",
          "name": "gameId",
          "type": "bytes32"
        },
        {
          "indexed": true,
          "internalType": "address",
          "name": "player",
          "type": "address"
        }
      ],
      "name": "PlayerJoined",
      "type": "event"
    },
    {
      "anonymous": false,
      "inputs": [
        {
          "indexed": true,
          "internalType": "address",
          "name": "player",
          "type": "address"
        },
        {
          "indexed": false,
          "internalType": "uint256",
          "name": "tokenAmount",
          "type": "uint256"
        },
        {
          "indexed": false,
          "internalType": "uint256",
          "name": "score",
          "type": "uint256"
        }
      ],
      "name": "RewardsClaimed",
      "type": "event"
    },
    {
      "inputs": [
        {
          "internalType": "address",
          "name": "server",
          "type": "address"
        }
      ],
      "name": "addAuthorizedServer",
      "outputs": [],
      "stateMutability": "nonpayable",
      "type": "function"
    },
    {
      "inputs": [
        {
          "internalType": "bytes32",
          "name": "gameId",
          "type": "bytes32"
        },
        {
          "internalType": "address",
          "name": "player",
          "type": "address"
        }
      ],
      "name": "addPlayerToSession",
      "outputs": [],
      "stateMutability": "nonpayable",
      "type": "function"
    },
    {
      "inputs": [
        {
          "internalType": "address",
          "name": "",
          "type": "address"
        }
      ],
      "name": "authorizedServers",
      "outputs": [
        {
          "internalType": "bool",
          "name": "",
          "type": "bool"
        }
      ],
      "stateMutability": "view",
      "type": "function"
    },
    {
      "inputs": [
        {
          "internalType": "uint256",
          "name": "score",
          "type": "uint256"
        }
      ],
      "name": "calculateRewards",
      "outputs": [
        {
          "internalType": "uint256",
          "name": "",
          "type": "uint256"
        }
      ],
      "stateMutability": "pure",
      "type": "function"
    },
    {
      "inputs": [
        {
          "internalType": "bytes32",
          "name": "gameId",
          "type": "bytes32"
        },
        {
          "internalType": "uint256",
          "name": "score",
          "type": "uint256"
        }
      ],
      "name": "claimRewards",
      "outputs": [],
      "stateMutability": "nonpayable",
      "type": "function"
    },
    {
      "inputs": [
        {
          "internalType": "bytes32",
          "name": "gameId",
          "type": "bytes32"
        }
      ],
      "name": "createGameSession",
      "outputs": [],
      "stateMutability": "nonpayable",
      "type": "function"
    },
    {
      "inputs": [
        {
          "internalType": "bytes32",
          "name": "gameId",
          "type": "bytes32"
        }
      ],
      "name": "endGameSession",
      "outputs": [],
      "stateMutability": "nonpayable",
      "type": "function"
    },
    {
      "inputs": [
        {
          "internalType": "bytes32",
          "name": "gameId",
          "type": "bytes32"
        }
      ],
      "name": "gameExists",
      "outputs": [
        {
          "internalType": "bool",
          "name": "",
          "type": "bool"
        }
      ],
      "stateMutability": "view",
      "type": "function"
    },
    {
      "inputs": [
        {
          "internalType": "bytes32",
          "name": "",
          "type": "bytes32"
        }
      ],
      "name": "gameSessions",
      "outputs": [
        {
          "internalType": "bytes32",
          "name": "id",
          "type": "bytes32"
        },
        {
          "internalType": "uint256",
          "name": "startTime",
          "type": "uint256"
        },
        {
          "internalType": "uint256",
          "name": "endTime",
          "type": "uint256"
        },
        {
          "internalType": "bool",
          "name": "active",
          "type": "bool"
        }
      ],
      "stateMutability": "view",
      "type": "function"
    },
    {
      "inputs": [],
      "name": "getKillsLeaderboard",
      "outputs": [
        {
          "internalType": "address[]",
          "name": "",
          "type": "address[]"
        },
        {
          "internalType": "uint256[]",
          "name": "",
          "type": "uint256[]"
        }
      ],
      "stateMutability": "view",
      "type": "function"
    },
    {
      "inputs": [
        {
          "internalType": "address",
          "name": "player",
          "type": "address"
        }
      ],
      "name": "getPlayerStats",
      "outputs": [
        {
          "internalType": "uint256",
          "name": "gamesPlayed",
          "type": "uint256"
        },
        {
          "internalType": "uint256",
          "name": "wins",
          "type": "uint256"
        },
        {
          "internalType": "uint256",
          "name": "kills",
          "type": "uint256"
        },
        {
          "internalType": "uint256",
          "name": "deaths",
          "type": "uint256"
        },
        {
          "internalType": "uint256",
          "name": "totalScore",
          "type": "uint256"
        }
      ],
      "stateMutability": "view",
      "type": "function"
    },
    {
      "inputs": [],
      "name": "getScoreLeaderboard",
      "outputs": [
        {
          "internalType": "address[]",
          "name": "",
          "type": "address[]"
        },
        {
          "internalType": "uint256[]",
          "name": "",
          "type": "uint256[]"
        }
      ],
      "stateMutability": "view",
      "type": "function"
    },
    {
      "inputs": [],
      "name": "getWinsLeaderboard",
      "outputs": [
        {
          "internalType": "address[]",
          "name": "",
          "type": "address[]"
        },
        {
          "internalType": "uint256[]",
          "name": "",
          "type": "uint256[]"
        }
      ],
      "stateMutability": "view",
      "type": "function"
    },
    {
      "inputs": [],
      "name": "nftContract",
      "outputs": [
        {
          "internalType": "contract MonadArenaNFT",
          "name": "",
          "type": "address"
        }
      ],
      "stateMutability": "view",
      "type": "function"
    },
    {
      "inputs": [],
      "name": "owner",
      "outputs": [
        {
          "internalType": "address",
          "name": "",
          "type": "address"
        }
      ],
      "stateMutability": "view",
      "type": "function"
    },
    {
      "inputs": [
        {
          "internalType": "bytes32",
          "name": "gameId",
          "type": "bytes32"
        },
        {
          "internalType": "address",
          "name": "player",
          "type": "address"
        }
      ],
      "name": "playerParticipated",
      "outputs": [
        {
          "internalType": "bool",
          "name": "",
          "type": "bool"
        }
      ],
      "stateMutability": "view",
      "type": "function"
    },
    {
      "inputs": [
        {
          "internalType": "address",
          "name": "",
          "type": "address"
        }
      ],
      "name": "playerStats",
      "outputs": [
        {
          "internalType": "uint256",
          "name": "gamesPlayed",
          "type": "uint256"
        },
        {
          "internalType": "uint256",
          "name": "wins",
          "type": "uint256"
        },
        {
          "internalType": "uint256",
          "name": "kills",
          "type": "uint256"
        },
        {
          "internalType": "uint256",
          "name": "deaths",
          "type": "uint256"
        },
        {
          "internalType": "uint256",
          "name": "totalScore",
          "type": "uint256"
        },
        {
          "internalType": "uint256",
          "name": "lastRewardTime",
          "type": "uint256"
        }
      ],
      "stateMutability": "view",
      "type": "function"
    },
    {
      "inputs": [
        {
          "internalType": "bytes32",
          "name": "gameId",
          "type": "bytes32"
        },
        {
          "internalType": "address",
          "name": "player",
          "type": "address"
        },
        {
          "internalType": "bool",
          "name": "won",
          "type": "bool"
        },
        {
          "internalType": "uint256",
          "name": "kills",
          "type": "uint256"
        },
        {
          "internalType": "uint256",
          "name": "deaths",
          "type": "uint256"
        },
        {
          "internalType": "uint256",
          "name": "score",
          "type": "uint256"
        }
      ],
      "name": "recordGameResults",
      "outputs": [],
      "stateMutability": "nonpayable",
      "type": "function"
    },
    {
      "inputs": [
        {
          "internalType": "address",
          "name": "server",
          "type": "address"
        }
      ],
      "name": "removeAuthorizedServer",
      "outputs": [],
      "stateMutability": "nonpayable",
      "type": "function"
    },
    {
      "inputs": [],
      "name": "renounceOwnership",
      "outputs": [],
      "stateMutability": "nonpayable",
      "type": "function"
    },
    {
      "inputs": [],
      "name": "tokenContract",
      "outputs": [
        {
          "internalType": "contract MonadArenaToken",
          "name": "",
          "type": "address"
        }
      ],
      "stateMutability": "view",
      "type": "function"
    },
    {
      "inputs": [
        {
          "internalType": "address",
          "name": "newOwner",
          "type": "address"
        }
      ],
      "name": "transferOwnership",
      "outputs": [],
      "stateMutability": "nonpayable",
      "type": "function"
    }
  ],
  "bytecode": "0x608060405234801561001057600080fd5b50604051612d89380380612d898339818101604052810190610032919061020d565b61004e6100436100de60201b60201c565b6100e660201b60201c565b6001808190555081600260006101000a81548173ffffffffffffffffffffffffffffffffffffffff021916908373ffffffffffffffffffffffffffffffffffffffff16021790555080600360006101000a81548173ffffffffffffffffffffffffffffffffffffffff021916908373ffffffffffffffffffffffffffffffffffffffff160217905550505061024d565b600033905090565b60008060009054906101000a900473ffffffffffffffffffffffffffffffffffffffff169050816000806101000a81548173ffffffffffffffffffffffffffffffffffffffff021916908373ffffffffffffffffffffffffffffffffffffffff1602179055508173ffffffffffffffffffffffffffffffffffffffff168173ffffffffffffffffffffffffffffffffffffffff167f8be0079c531659141344cd1fd0a4f28419497f9722a3daafe3b4186f6b6457e060405160405180910390a35050565b600080fd5b600073ffffffffffffffffffffffffffffffffffffffff82169050919050565b60006101da826101af565b9050919050565b6101ea816101cf565b81146101f557600080fd5b50565b600081519050610207816101e1565b92915050565b60008060408385031215610224576102236101aa565b5b6000610232858286016101f8565b9250506020610243858286016101f8565b9150509250929050565b612b2d8061025c6000396000f3fe608060405234801561001057600080fd5b50600436106101425760003560e01c8063918cba7b116100b8578063d3ea43501161007c578063d3ea435014610386578063d56d229d146103b6578063f2fde38b146103d4578063f43961ed146103f0578063f51f7e1e1461040c578063fe0ff3b71461042857610142565b8063918cba7b146102c75780639489147f146102fa578063be02cf2e14610316578063beffe46314610332578063cdafbbb61461035157610142565b806365c22b491161010a57806365c22b49146101f0578063715018a614610220578063754db89b1461022a5780637d4612391461025a5780638248129b1461028a5780638da5cb5b146102a957610142565b8063282de43f14610147578063286dda8b1461016357806334538ffb1461017f5780634fd66eae1461019e57806355a373d6146101d2575b600080fd5b610161600480360381019061015c9190611bec565b610444565b005b61017d60048036038101906101789190611bec565b6105e1565b005b610187610748565b604051610195929190611dd1565b60405180910390f35b6101b860048036038101906101b39190611e34565b6107f3565b6040516101c9959493929190611e70565b60405180910390f35b6101da6108b1565b6040516101e79190611f22565b60405180910390f35b61020a60048036038101906102059190611e34565b6108d7565b6040516102179190611f58565b60405180910390f35b6102286108f7565b005b610244600480360381019061023f9190611bec565b61090b565b6040516102519190611f58565b60405180910390f35b610274600480360381019061026f9190611f73565b61092d565b6040516102819190611f58565b60405180910390f35b610292610998565b6040516102a0929190611dd1565b60405180910390f35b6102b1610a43565b6040516102be9190611fc2565b60405180910390f35b6102e160048036038101906102dc9190611bec565b610a6c565b6040516102f19493929190611fec565b60405180910390f35b610314600480360381019061030f9190611f73565b610aa9565b005b610330600480360381019061032b919061205d565b610cdf565b005b61033a610f14565b604051610348929190611dd1565b60405180910390f35b61036b60048036038101906103669190611e34565b610fbf565b60405161037d9695949392919061209d565b60405180910390f35b6103a0600480360381019061039b91906120fe565b610ffb565b6040516103ad919061212b565b60405180910390f35b6103be611042565b6040516103cb9190612167565b60405180910390f35b6103ee60048036038101906103e99190611e34565b611068565b005b61040a600480360381019061040591906121ae565b6110eb565b005b61042660048036038101906104219190611e34565b6113c9565b005b610442600480360381019061043d9190611e34565b61142c565b005b600660003373ffffffffffffffffffffffffffffffffffffffff1673ffffffffffffffffffffffffffffffffffffffff16815260200190815260200160002060009054906101000a900460ff166104d0576040517f08c379a00000000000000000000000000000000000000000000000000000000081526004016104c790612298565b60405180910390fd5b6000600460008381526020019081526020016000209050600081600101541161052e576040517f08c379a000000000000000000000000000000000000000000000000000000000815260040161052590612304565b60405180910390fd5b8060030160009054906101000a900460ff1661057f576040517f08c379a000000000000000000000000000000000000000000000000000000000815260040161057690612370565b60405180910390fd5b42816002018190555060008160030160006101000a81548160ff021916908315150217905550817f4d239fd5831053c5dadc1c2b782188a3ac876005285337fe0e858ba6fb9f494a426040516105d5919061212b565b60405180910390a25050565b600660003373ffffffffffffffffffffffffffffffffffffffff1673ffffffffffffffffffffffffffffffffffffffff16815260200190815260200160002060009054906101000a900460ff1661066d576040517f08c379a000000000000000000000000000000000000000000000000000000000815260040161066490612298565b60405180910390fd5b60006004600083815260200190815260200160002060010154146106c6576040517f08c379a00000000000000000000000000000000000000000000000000000000081526004016106bd906123dc565b60405180910390fd5b600060046000838152602001908152602001600020905081816000018190555042816001018190555060018160030160006101000a81548160ff021916908315150217905550817fdd6732e86d4a3ba6506928f7e5268fe734da0c341abb7a82f08d186cb0554fb24260405161073c919061212b565b60405180910390a25050565b6060806000600a67ffffffffffffffff811115610768576107676123fc565b5b6040519080825280602002602001820160405280156107965781602001602082028036833780820191505090505b5090506000600a67ffffffffffffffff8111156107b6576107b56123fc565b5b6040519080825280602002602001820160405280156107e45781602001602082028036833780820191505090505b50905081819350935050509091565b600080600080600080600560008873ffffffffffffffffffffffffffffffffffffffff1673ffffffffffffffffffffffffffffffffffffffff1681526020019081526020016000206040518060c00160405290816000820154815260200160018201548152602001600282015481526020016003820154815260200160048201548152602001600582015481525050905080600001518160200151826040015183606001518460800151955095509550955095505091939590929450565b600260009054906101000a900473ffffffffffffffffffffffffffffffffffffffff1681565b60066020528060005260406000206000915054906101000a900460ff1681565b6108ff61148f565b610909600061150d565b565b6000806004600084815260200190815260200160002060010154119050919050565b60006004600084815260200190815260200160002060040160008373ffffffffffffffffffffffffffffffffffffffff1673ffffffffffffffffffffffffffffffffffffffff16815260200190815260200160002060009054906101000a900460ff16905092915050565b6060806000600a67ffffffffffffffff8111156109b8576109b76123fc565b5b6040519080825280602002602001820160405280156109e65781602001602082028036833780820191505090505b5090506000600a67ffffffffffffffff811115610a0657610a056123fc565b5b604051908082528060200260200182016040528015610a345781602001602082028036833780820191505090505b50905081819350935050509091565b60008060009054906101000a900473ffffffffffffffffffffffffffffffffffffffff16905090565b60046020528060005260406000206000915090508060000154908060010154908060020154908060030160009054906101000a900460ff16905084565b600660003373ffffffffffffffffffffffffffffffffffffffff1673ffffffffffffffffffffffffffffffffffffffff16815260200190815260200160002060009054906101000a900460ff16610b35576040517f08c379a0000000000000000000000000000000000000000000000000000000008152600401610b2c90612298565b60405180910390fd5b60006004600084815260200190815260200160002090506000816001015411610b93576040517f08c379a0000000000000000000000000000000000000000000000000000000008152600401610b8a90612304565b60405180910390fd5b8060030160009054906101000a900460ff16610be4576040517f08c379a0000000000000000000000000000000000000000000000000000000008152600401610bdb90612370565b60405180910390fd5b60018160040160008473ffffffffffffffffffffffffffffffffffffffff1673ffffffffffffffffffffffffffffffffffffffff16815260200190815260200160002060006101000a81548160ff021916908315150217905550600560008373ffffffffffffffffffffffffffffffffffffffff1673ffffffffffffffffffffffffffffffffffffffff1681526020019081526020016000206000016000815480929190610c919061245a565b91905055508173ffffffffffffffffffffffffffffffffffffffff16837fdd5a0e5e0c7946c099f2ed766c0b633dd2eb1e1e10743bab89f871e8038b080b60405160405180910390a3505050565b610ce76115d1565b60006004600084815260200190815260200160002090506000816001015411610d45576040517f08c379a0000000000000000000000000000000000000000000000000000000008152600401610d3c90612304565b60405180910390fd5b8060040160003373ffffffffffffffffffffffffffffffffffffffff1673ffffffffffffffffffffffffffffffffffffffff16815260200190815260200160002060009054906101000a900460ff16610dd3576040517f08c379a0000000000000000000000000000000000000000000000000000000008152600401610dca906124ee565b60405180910390fd5b6000610dde83610ffb565b905042600560003373ffffffffffffffffffffffffffffffffffffffff1673ffffffffffffffffffffffffffffffffffffffff16815260200190815260200160002060050181905550600260009054906101000a900473ffffffffffffffffffffffffffffffffffffffff1673ffffffffffffffffffffffffffffffffffffffff166340c10f1933836040518363ffffffff1660e01b8152600401610e8492919061250e565b600060405180830381600087803b158015610e9e57600080fd5b505af1158015610eb2573d6000803e3d6000fd5b505050503373ffffffffffffffffffffffffffffffffffffffff167fdacbdde355ba930696a362ea6738feb9f8bd52dfb3d81947558fd3217e23e3258285604051610efe929190612537565b60405180910390a25050610f10611620565b5050565b6060806000600a67ffffffffffffffff811115610f3457610f336123fc565b5b604051908082528060200260200182016040528015610f625781602001602082028036833780820191505090505b5090506000600a67ffffffffffffffff811115610f8257610f816123fc565b5b604051908082528060200260200182016040528015610fb05781602001602082028036833780820191505090505b50905081819350935050509091565b60056020528060005260406000206000915090508060000154908060010154908060020154908060030154908060040154908060050154905086565b600080670de0b6b3a7640000905060006064670de0b6b3a7640000856110219190612560565b61102b91906125d1565b905080826110399190612602565b92505050919050565b600360009054906101000a900473ffffffffffffffffffffffffffffffffffffffff1681565b61107061148f565b600073ffffffffffffffffffffffffffffffffffffffff168173ffffffffffffffffffffffffffffffffffffffff16036110df576040517f08c379a00000000000000000000000000000000000000000000000000000000081526004016110d6906126a8565b60405180910390fd5b6110e88161150d565b50565b600660003373ffffffffffffffffffffffffffffffffffffffff1673ffffffffffffffffffffffffffffffffffffffff16815260200190815260200160002060009054906101000a900460ff16611177576040517f08c379a000000000000000000000000000000000000000000000000000000000815260040161116e90612298565b60405180910390fd5b600060046000888152602001908152602001600020905060008160010154116111d5576040517f08c379a00000000000000000000000000000000000000000000000000000000081526004016111cc90612304565b60405180910390fd5b8060040160008773ffffffffffffffffffffffffffffffffffffffff1673ffffffffffffffffffffffffffffffffffffffff16815260200190815260200160002060009054906101000a900460ff16611263576040517f08c379a000000000000000000000000000000000000000000000000000000000815260040161125a906124ee565b60405180910390fd5b6000600560008873ffffffffffffffffffffffffffffffffffffffff1673ffffffffffffffffffffffffffffffffffffffff168152602001908152602001600020905085156112c7578060010160008154809291906112c19061245a565b91905055505b848160020160008282546112db9190612602565b92505081905550838160030160008282546112f69190612602565b92505081905550828160040160008282546113119190612602565b92505081905550611368816040518060c00160405290816000820154815260200160018201548152602001600282015481526020016003820154815260200160048201548152602001600582015481525050611629565b156113bf576113be87826040518060c0016040529081600082015481526020016001820154815260200160028201548152602001600382015481526020016004820154815260200160058201548152505061169b565b5b5050505050505050565b6113d161148f565b6001600660008373ffffffffffffffffffffffffffffffffffffffff1673ffffffffffffffffffffffffffffffffffffffff16815260200190815260200160002060006101000a81548160ff02191690831515021790555050565b61143461148f565b6000600660008373ffffffffffffffffffffffffffffffffffffffff1673ffffffffffffffffffffffffffffffffffffffff16815260200190815260200160002060006101000a81548160ff02191690831515021790555050565b611497611a21565b73ffffffffffffffffffffffffffffffffffffffff166114b5610a43565b73ffffffffffffffffffffffffffffffffffffffff161461150b576040517f08c379a000000000000000000000000000000000000000000000000000000000815260040161150290612714565b60405180910390fd5b565b60008060009054906101000a900473ffffffffffffffffffffffffffffffffffffffff169050816000806101000a81548173ffffffffffffffffffffffffffffffffffffffff021916908373ffffffffffffffffffffffffffffffffffffffff1602179055508173ffffffffffffffffffffffffffffffffffffffff168173ffffffffffffffffffffffffffffffffffffffff167f8be0079c531659141344cd1fd0a4f28419497f9722a3daafe3b4186f6b6457e060405160405180910390a35050565b600260015403611616576040517f08c379a000000000000000000000000000000000000000000000000000000000815260040161160d90612780565b60405180910390fd5b6002600181905550565b60018081905550565b600080826020015111801561164e57506000600a836020015161164c91906127a0565b145b1561165c5760019050611696565b6103e8826080015110158015611683575060646103e8836080015161168191906127a0565b105b156116915760019050611696565b600090505b919050565b60008160000151600583604001516116b39190612560565b6116bd91906125d1565b60326116c99190612602565b905060648160ff1611156116dc57606490505b600060326103e884608001516116f291906125d1565b6116fc91906127a0565b60326117089190612602565b905060648160ff16111561171b57606490505b60008360000151600a85602001516117339190612560565b61173d91906125d1565b60326117499190612602565b905060648160ff16111561175c57606490505b600060324261176b91906127a0565b60326117779190612602565b905060648160ff16111561178a57606490505b606060508560ff1611156117d5576040518060400160405280600681526020017f536e69706572000000000000000000000000000000000000000000000000000081525090506118ec565b60508460ff16111561181e576040518060400160405280600781526020017f41737361756c740000000000000000000000000000000000000000000000000081525090506118eb565b60508360ff161115611867576040518060400160405280600981526020017f507265636973696f6e000000000000000000000000000000000000000000000081525090506118ea565b60508260ff1611156118b0576040518060400160405280600781526020017f53686f7467756e0000000000000000000000000000000000000000000000000081525090506118e9565b6040518060400160405280600681526020017f506973746f6c000000000000000000000000000000000000000000000000000081525090505b5b5b5b6000816118f842611a29565b604051602001611909929190612900565b60405160208183030381529060405290506000600360009054906101000a900473ffffffffffffffffffffffffffffffffffffffff1673ffffffffffffffffffffffffffffffffffffffff1663e0a866168a848a8a8a8a8a6040518863ffffffff1660e01b815260040161198397969594939291906129a0565b6020604051808303816000875af11580156119a2573d6000803e3d6000fd5b505050506040513d601f19601f820116820180604052508101906119c69190612a32565b90508873ffffffffffffffffffffffffffffffffffffffff167f8c4b0bd0847d940a8f64327b75ae300814f43d12e16f2f0b6da686d784f00beb82604051611a0e919061212b565b60405180910390a2505050505050505050565b600033905090565b606060008203611a70576040518060400160405280600181526020017f30000000000000000000000000000000000000000000000000000000000000008152509050611bac565b600082905060005b60008214611aa2578080611a8b9061245a565b915050600a82611a9b91906125d1565b9150611a78565b60008167ffffffffffffffff811115611abe57611abd6123fc565b5b6040519080825280601f01601f191660200182016040528015611af05781602001600182028036833780820191505090505b50905060008290505b60008614611ba457600181611b0e9190612a5f565b90506000600a8088611b2091906125d1565b611b2a9190612560565b87611b359190612a5f565b6030611b419190612a93565b905060008160f81b905080848481518110611b5f57611b5e612ac8565b5b60200101907effffffffffffffffffffffffffffffffffffffffffffffffffffffffffffff1916908160001a905350600a88611b9b91906125d1565b97505050611af9565b819450505050505b919050565b600080fd5b6000819050919050565b611bc981611bb6565b8114611bd457600080fd5b50565b600081359050611be681611bc0565b92915050565b600060208284031215611c0257611c01611bb1565b5b6000611c1084828501611bd7565b91505092915050565b600081519050919050565b600082825260208201905092915050565b6000819050602082019050919050565b600073ffffffffffffffffffffffffffffffffffffffff82169050919050565b6000611c7082611c45565b9050919050565b611c8081611c65565b82525050565b6000611c928383611c77565b60208301905092915050565b6000602082019050919050565b6000611cb682611c19565b611cc08185611c24565b9350611ccb83611c35565b8060005b83811015611cfc578151611ce38882611c86565b9750611cee83611c9e565b925050600181019050611ccf565b5085935050505092915050565b600081519050919050565b600082825260208201905092915050565b6000819050602082019050919050565b6000819050919050565b611d4881611d35565b82525050565b6000611d5a8383611d3f565b60208301905092915050565b6000602082019050919050565b6000611d7e82611d09565b611d888185611d14565b9350611d9383611d25565b8060005b83811015611dc4578151611dab8882611d4e565b9750611db683611d66565b925050600181019050611d97565b5085935050505092915050565b60006040820190508181036000830152611deb8185611cab565b90508181036020830152611dff8184611d73565b90509392505050565b611e1181611c65565b8114611e1c57600080fd5b50565b600081359050611e2e81611e08565b92915050565b600060208284031215611e4a57611e49611bb1565b5b6000611e5884828501611e1f565b91505092915050565b611e6a81611d35565b82525050565b600060a082019050611e856000830188611e61565b611e926020830187611e61565b611e9f6040830186611e61565b611eac6060830185611e61565b611eb96080830184611e61565b9695505050505050565b6000819050919050565b6000611ee8611ee3611ede84611c45565b611ec3565b611c45565b9050919050565b6000611efa82611ecd565b9050919050565b6000611f0c82611eef565b9050919050565b611f1c81611f01565b82525050565b6000602082019050611f376000830184611f13565b92915050565b60008115159050919050565b611f5281611f3d565b82525050565b6000602082019050611f6d6000830184611f49565b92915050565b60008060408385031215611f8a57611f89611bb1565b5b6000611f9885828601611bd7565b9250506020611fa985828601611e1f565b9150509250929050565b611fbc81611c65565b82525050565b6000602082019050611fd76000830184611fb3565b92915050565b611fe681611bb6565b82525050565b60006080820190506120016000830187611fdd565b61200e6020830186611e61565b61201b6040830185611e61565b6120286060830184611f49565b95945050505050565b61203a81611d35565b811461204557600080fd5b50565b60008135905061205781612031565b92915050565b6000806040838503121561207457612073611bb1565b5b600061208285828601611bd7565b925050602061209385828601612048565b9150509250929050565b600060c0820190506120b26000830189611e61565b6120bf6020830188611e61565b6120cc6040830187611e61565b6120d96060830186611e61565b6120e66080830185611e61565b6120f360a0830184611e61565b979650505050505050565b60006020828403121561211457612113611bb1565b5b600061212284828501612048565b91505092915050565b60006020820190506121406000830184611e61565b92915050565b600061215182611eef565b9050919050565b61216181612146565b82525050565b600060208201905061217c6000830184612158565b92915050565b61218b81611f3d565b811461219657600080fd5b50565b6000813590506121a881612182565b92915050565b60008060008060008060c087890312156121cb576121ca611bb1565b5b60006121d989828a01611bd7565b96505060206121ea89828a01611e1f565b95505060406121fb89828a01612199565b945050606061220c89828a01612048565b935050608061221d89828a01612048565b92505060a061222e89828a01612048565b9150509295509295509295565b600082825260208201905092915050565b7f4e6f7420617574686f72697a6564000000000000000000000000000000000000600082015250565b6000612282600e8361223b565b915061228d8261224c565b602082019050919050565b600060208201905081810360008301526122b181612275565b9050919050565b7f47616d652073657373696f6e20646f6573206e6f742065786973740000000000600082015250565b60006122ee601b8361223b565b91506122f9826122b8565b602082019050919050565b6000602082019050818103600083015261231d816122e1565b9050919050565b7f47616d652073657373696f6e20616c726561647920656e646564000000000000600082015250565b600061235a601a8361223b565b915061236582612324565b602082019050919050565b600060208201905081810360008301526123898161234d565b9050919050565b7f47616d652073657373696f6e20616c7265616479206578697374730000000000600082015250565b60006123c6601b8361223b565b91506123d182612390565b602082019050919050565b600060208201905081810360008301526123f5816123b9565b9050919050565b7f4e487b7100000000000000000000000000000000000000000000000000000000600052604160045260246000fd5b7f4e487b7100000000000000000000000000000000000000000000000000000000600052601160045260246000fd5b600061246582611d35565b91507fffffffffffffffffffffffffffffffffffffffffffffffffffffffffffffffff82036124975761249661242b565b5b600182019050919050565b7f506c61796572206e6f7420696e2073657373696f6e0000000000000000000000600082015250565b60006124d860158361223b565b91506124e3826124a2565b602082019050919050565b60006020820190508181036000830152612507816124cb565b9050919050565b60006040820190506125236000830185611fb3565b6125306020830184611e61565b9392505050565b600060408201905061254c6000830185611e61565b6125596020830184611e61565b9392505050565b600061256b82611d35565b915061257683611d35565b925082820261258481611d35565b9150828204841483151761259b5761259a61242b565b5b5092915050565b7f4e487b7100000000000000000000000000000000000000000000000000000000600052601260045260246000fd5b60006125dc82611d35565b91506125e783611d35565b9250826125f7576125f66125a2565b5b828204905092915050565b600061260d82611d35565b915061261883611d35565b92508282019050808211156126305761262f61242b565b5b92915050565b7f4f776e61626c653a206e6577206f776e657220697320746865207a65726f206160008201527f6464726573730000000000000000000000000000000000000000000000000000602082015250565b600061269260268361223b565b915061269d82612636565b604082019050919050565b600060208201905081810360008301526126c181612685565b9050919050565b7f4f776e61626c653a2063616c6c6572206973206e6f7420746865206f776e6572600082015250565b60006126fe60208361223b565b9150612709826126c8565b602082019050919050565b6000602082019050818103600083015261272d816126f1565b9050919050565b7f5265656e7472616e637947756172643a207265656e7472616e742063616c6c00600082015250565b600061276a601f8361223b565b915061277582612734565b602082019050919050565b600060208201905081810360008301526127998161275d565b9050919050565b60006127ab82611d35565b91506127b683611d35565b9250826127c6576127c56125a2565b5b828206905092915050565b600081905092915050565b7f68747470733a2f2f6170692e6d6f6e61646172656e612e636f6d2f6d6574616460008201527f6174612f776561706f6e2f000000000000000000000000000000000000000000602082015250565b6000612838602b836127d1565b9150612843826127dc565b602b82019050919050565b600081519050919050565b60005b8381101561287757808201518184015260208101905061285c565b60008484015250505050565b600061288e8261284e565b61289881856127d1565b93506128a8818560208601612859565b80840191505092915050565b7f2f00000000000000000000000000000000000000000000000000000000000000600082015250565b60006128ea6001836127d1565b91506128f5826128b4565b600182019050919050565b600061290b8261282b565b91506129178285612883565b9150612922826128dd565b915061292e8284612883565b91508190509392505050565b6000601f19601f8301169050919050565b60006129568261284e565b612960818561223b565b9350612970818560208601612859565b6129798161293a565b840191505092915050565b600060ff82169050919050565b61299a81612984565b82525050565b600060e0820190506129b5600083018a611fb3565b81810360208301526129c7818961294b565b90506129d66040830188612991565b6129e36060830187612991565b6129f06080830186612991565b6129fd60a0830185612991565b81810360c0830152612a0f818461294b565b905098975050505050505050565b600081519050612a2c81612031565b92915050565b600060208284031215612a4857612a47611bb1565b5b6000612a5684828501612a1d565b91505092915050565b6000612a6a82611d35565b9150612a7583611d35565b9250828203905081811115612a8d57612a8c61242b565b5b92915050565b6000612a9e82612984565b9150612aa983612984565b9250828201905060ff811115612ac257612ac161242b565b5b92915050565b7f4e487b7100000000000000000000000000000000000000000000000000000000600052603260045260246000fdfea26469706673582212203910bc85e709f482b65f5b742e213edb6e16cdae2c9e94ba6488004b27f8df4264736f6c634300081c0033",
  "linkReferences": {},
  "deployedLinkReferences": {}
}