{
  "_format": "hh-sol-artifact-1",
  "contractName": "MonadArenaToken",
  "sourceName": "contracts/MonadArenaToken.sol",
  "abi": [
    {
      "inputs": [],
      "stateMutability": "nonpayable",
      "type": "constructor"
    },
    {
      "anonymous": false,
      "inputs": [
        {
          "indexed": true,
          "internalType": "address",
          "name": "owner",
          "type": "address"
        },
        {
          "indexed": true,
          "internalType": "address",
          "name": "spender",
          "type": "address"
        },
        {
          "indexed": false,
          "internalType": "uint256",
          "name": "value",
          "type": "uint256"
        }
      ],
      "name": "Approval",
      "type": "event"
    },
    {
      "anonymous": false,
      "inputs": [
        {
          "indexed": true,
          "internalType": "address",
          "name": "newContract",
          "type": "address"
        }
      ],
      "name": "GameCoreContractUpdated",
      "type": "event"
    },
    {
      "anonymous": false,
      "inputs": [
        {
          "indexed": true,
          "internalType": "address",
          "name": "previousOwner",
          "type": "address"
        },
        {
          "indexed": true,
          "internalType": "address",
          "name": "newOwner",
          "type": "address"
        }
      ],
      "name": "OwnershipTransferred",
      "type": "event"
    },
    {
      "anonymous": false,
      "inputs": [
        {
          "indexed": true,
          "internalType": "address",
          "name": "from",
          "type": "address"
        },
        {
          "indexed": true,
          "internalType": "address",
          "name": "to",
          "type": "address"
        },
        {
          "indexed": false,
          "internalType": "uint256",
          "name": "value",
          "type": "uint256"
        }
      ],
      "name": "Transfer",
      "type": "event"
    },
    {
      "inputs": [
        {
          "internalType": "address",
          "name": "owner",
          "type": "address"
        },
        {
          "internalType": "address",
          "name": "spender",
          "type": "address"
        }
      ],
      "name": "allowance",
      "outputs": [
        {
          "internalType": "uint256",
          "name": "",
          "type": "uint256"
        }
      ],
      "stateMutability": "view",
      "type": "function"
    },
    {
      "inputs": [
        {
          "internalType": "address",
          "name": "spender",
          "type": "address"
        },
        {
          "internalType": "uint256",
          "name": "amount",
          "type": "uint256"
        }
      ],
      "name": "approve",
      "outputs": [
        {
          "internalType": "bool",
          "name": "",
          "type": "bool"
        }
      ],
      "stateMutability": "nonpayable",
      "type": "function"
    },
    {
      "inputs": [
        {
          "internalType": "address",
          "name": "account",
          "type": "address"
        }
      ],
      "name": "balanceOf",
      "outputs": [
        {
          "internalType": "uint256",
          "name": "",
          "type": "uint256"
        }
      ],
      "stateMutability": "view",
      "type": "function"
    },
    {
      "inputs": [],
      "name": "decimals",
      "outputs": [
        {
          "internalType": "uint8",
          "name": "",
          "type": "uint8"
        }
      ],
      "stateMutability": "view",
      "type": "function"
    },
    {
      "inputs": [
        {
          "internalType": "address",
          "name": "spender",
          "type": "address"
        },
        {
          "internalType": "uint256",
          "name": "subtractedValue",
          "type": "uint256"
        }
      ],
      "name": "decreaseAllowance",
      "outputs": [
        {
          "internalType": "bool",
          "name": "",
          "type": "bool"
        }
      ],
      "stateMutability": "nonpayable",
      "type": "function"
    },
    {
      "inputs": [],
      "name": "gameCoreContract",
      "outputs": [
        {
          "internalType": "address",
          "name": "",
          "type": "address"
        }
      ],
      "stateMutability": "view",
      "type": "function"
    },
    {
      "inputs": [
        {
          "internalType": "address",
          "name": "spender",
          "type": "address"
        },
        {
          "internalType": "uint256",
          "name": "addedValue",
          "type": "uint256"
        }
      ],
      "name": "increaseAllowance",
      "outputs": [
        {
          "internalType": "bool",
          "name": "",
          "type": "bool"
        }
      ],
      "stateMutability": "nonpayable",
      "type": "function"
    },
    {
      "inputs": [
        {
          "internalType": "address",
          "name": "to",
          "type": "address"
        },
        {
          "internalType": "uint256",
          "name": "amount",
          "type": "uint256"
        }
      ],
      "name": "mint",
      "outputs": [],
      "stateMutability": "nonpayable",
      "type": "function"
    },
    {
      "inputs": [],
      "name": "name",
      "outputs": [
        {
          "internalType": "string",
          "name": "",
          "type": "string"
        }
      ],
      "stateMutability": "view",
      "type": "function"
    },
    {
      "inputs": [],
      "name": "owner",
      "outputs": [
        {
          "internalType": "address",
          "name": "",
          "type": "address"
        }
      ],
      "stateMutability": "view",
      "type": "function"
    },
    {
      "inputs": [],
      "name": "renounceOwnership",
      "outputs": [],
      "stateMutability": "nonpayable",
      "type": "function"
    },
    {
      "inputs": [
        {
          "internalType": "address",
          "name": "_gameCoreContract",
          "type": "address"
        }
      ],
      "name": "setGameCoreContract",
      "outputs": [],
      "stateMutability": "nonpayable",
      "type": "function"
    },
    {
      "inputs": [],
      "name": "symbol",
      "outputs": [
        {
          "internalType": "string",
          "name": "",
          "type": "string"
        }
      ],
      "stateMutability": "view",
      "type": "function"
    },
    {
      "inputs": [],
      "name": "totalSupply",
      "outputs": [
        {
          "internalType": "uint256",
          "name": "",
          "type": "uint256"
        }
      ],
      "stateMutability": "view",
      "type": "function"
    },
    {
      "inputs": [
        {
          "internalType": "address",
          "name": "to",
          "type": "address"
        },
        {
          "internalType": "uint256",
          "name": "amount",
          "type": "uint256"
        }
      ],
      "name": "transfer",
      "outputs": [
        {
          "internalType": "bool",
          "name": "",
          "type": "bool"
        }
      ],
      "stateMutability": "nonpayable",
      "type": "function"
    },
    {
      "inputs": [
        {
          "internalType": "address",
          "name": "from",
          "type": "address"
        },
        {
          "internalType": "address",
          "name": "to",
          "type": "address"
        },
        {
          "internalType": "uint256",
          "name": "amount",
          "type": "uint256"
        }
      ],
      "name": "transferFrom",
      "outputs": [
        {
          "internalType": "bool",
          "name": "",
          "type": "bool"
        }
      ],
      "stateMutability": "nonpayable",
      "type": "function"
    },
    {
      "inputs": [
        {
          "internalType": "address",
          "name": "newOwner",
          "type": "address"
        }
      ],
      "name": "transferOwnership",
      "outputs": [],
      "stateMutability": "nonpayable",
      "type": "function"
    }
  ],
  "bytecode": "0x608060405234801561001057600080fd5b506040518060400160405280601181526020017f4d6f6e6164204172656e6120546f6b656e0000000000000000000000000000008152506040518060400160405280600581526020017f4152454e41000000000000000000000000000000000000000000000000000000815250816003908161008c919061058a565b50806004908161009c919061058a565b5050506100bb6100b06100f760201b60201c565b6100ff60201b60201c565b6100f2336100cd6101c560201b60201c565b600a6100d991906107cb565b620f42406100e79190610816565b6101ce60201b60201c565b610933565b600033905090565b6000600560009054906101000a900473ffffffffffffffffffffffffffffffffffffffff16905081600560006101000a81548173ffffffffffffffffffffffffffffffffffffffff021916908373ffffffffffffffffffffffffffffffffffffffff1602179055508173ffffffffffffffffffffffffffffffffffffffff168173ffffffffffffffffffffffffffffffffffffffff167f8be0079c531659141344cd1fd0a4f28419497f9722a3daafe3b4186f6b6457e060405160405180910390a35050565b60006012905090565b600073ffffffffffffffffffffffffffffffffffffffff168273ffffffffffffffffffffffffffffffffffffffff160361023d576040517f08c379a0000000000000000000000000000000000000000000000000000000008152600401610234906108b5565b60405180910390fd5b61024f6000838361033060201b60201c565b806002600082825461026191906108d5565b92505081905550806000808473ffffffffffffffffffffffffffffffffffffffff1673ffffffffffffffffffffffffffffffffffffffff168152602001908152602001600020600082825401925050819055508173ffffffffffffffffffffffffffffffffffffffff16600073ffffffffffffffffffffffffffffffffffffffff167fddf252ad1be2c89b69c2b068fc378daa952ba7f163c4a11628f55a4df523b3ef836040516103129190610918565b60405180910390a361032c6000838361033560201b60201c565b5050565b505050565b505050565b600081519050919050565b7f4e487b7100000000000000000000000000000000000000000000000000000000600052604160045260246000fd5b7f4e487b7100000000000000000000000000000000000000000000000000000000600052602260045260246000fd5b600060028204905060018216806103bb57607f821691505b6020821081036103ce576103cd610374565b5b50919050565b60008190508160005260206000209050919050565b60006020601f8301049050919050565b600082821b905092915050565b6000600883026104367fffffffffffffffffffffffffffffffffffffffffffffffffffffffffffffffff826103f9565b61044086836103f9565b95508019841693508086168417925050509392505050565b6000819050919050565b6000819050919050565b600061048761048261047d84610458565b610462565b610458565b9050919050565b6000819050919050565b6104a18361046c565b6104b56104ad8261048e565b848454610406565b825550505050565b600090565b6104ca6104bd565b6104d5818484610498565b505050565b5b818110156104f9576104ee6000826104c2565b6001810190506104db565b5050565b601f82111561053e5761050f816103d4565b610518846103e9565b81016020851015610527578190505b61053b610533856103e9565b8301826104da565b50505b505050565b600082821c905092915050565b600061056160001984600802610543565b1980831691505092915050565b600061057a8383610550565b9150826002028217905092915050565b6105938261033a565b67ffffffffffffffff8111156105ac576105ab610345565b5b6105b682546103a3565b6105c18282856104fd565b600060209050601f8311600181146105f457600084156105e2578287015190505b6105ec858261056e565b865550610654565b601f198416610602866103d4565b60005b8281101561062a57848901518255600182019150602085019450602081019050610605565b868310156106475784890151610643601f891682610550565b8355505b6001600288020188555050505b505050505050565b7f4e487b7100000000000000000000000000000000000000000000000000000000600052601160045260246000fd5b60008160011c9050919050565b6000808291508390505b60018511156106e2578086048111156106be576106bd61065c565b5b60018516156106cd5780820291505b80810290506106db8561068b565b94506106a2565b94509492505050565b6000826106fb57600190506107b7565b8161070957600090506107b7565b816001811461071f576002811461072957610758565b60019150506107b7565b60ff84111561073b5761073a61065c565b5b8360020a9150848211156107525761075161065c565b5b506107b7565b5060208310610133831016604e8410600b841016171561078d5782820a9050838111156107885761078761065c565b5b6107b7565b61079a8484846001610698565b925090508184048111156107b1576107b061065c565b5b81810290505b9392505050565b600060ff82169050919050565b60006107d682610458565b91506107e1836107be565b925061080e7fffffffffffffffffffffffffffffffffffffffffffffffffffffffffffffffff84846106eb565b905092915050565b600061082182610458565b915061082c83610458565b925082820261083a81610458565b915082820484148315176108515761085061065c565b5b5092915050565b600082825260208201905092915050565b7f45524332303a206d696e7420746f20746865207a65726f206164647265737300600082015250565b600061089f601f83610858565b91506108aa82610869565b602082019050919050565b600060208201905081810360008301526108ce81610892565b9050919050565b60006108e082610458565b91506108eb83610458565b92508282019050808211156109035761090261065c565b5b92915050565b61091281610458565b82525050565b600060208201905061092d6000830184610909565b92915050565b6119d9806109426000396000f3fe608060405234801561001057600080fd5b506004361061010b5760003560e01c806340c10f19116100a257806395d89b411161007157806395d89b41146102a8578063a457c2d7146102c6578063a9059cbb146102f6578063dd62ed3e14610326578063f2fde38b146103565761010b565b806340c10f191461023457806370a0823114610250578063715018a6146102805780638da5cb5b1461028a5761010b565b806323b872dd116100de57806323b872dd146101985780632748ecae146101c8578063313ce567146101e657806339509351146102045761010b565b806306fdde0314610110578063095ea7b31461012e5780631765a3a31461015e57806318160ddd1461017a575b600080fd5b610118610372565b60405161012591906110b6565b60405180910390f35b61014860048036038101906101439190611171565b610404565b60405161015591906111cc565b60405180910390f35b610178600480360381019061017391906111e7565b610427565b005b6101826104b6565b60405161018f9190611223565b60405180910390f35b6101b260048036038101906101ad919061123e565b6104c0565b6040516101bf91906111cc565b60405180910390f35b6101d06104ef565b6040516101dd91906112a0565b60405180910390f35b6101ee610515565b6040516101fb91906112d7565b60405180910390f35b61021e60048036038101906102199190611171565b61051e565b60405161022b91906111cc565b60405180910390f35b61024e60048036038101906102499190611171565b610555565b005b61026a600480360381019061026591906111e7565b6105f3565b6040516102779190611223565b60405180910390f35b61028861063b565b005b61029261064f565b60405161029f91906112a0565b60405180910390f35b6102b0610679565b6040516102bd91906110b6565b60405180910390f35b6102e060048036038101906102db9190611171565b61070b565b6040516102ed91906111cc565b60405180910390f35b610310600480360381019061030b9190611171565b610782565b60405161031d91906111cc565b60405180910390f35b610340600480360381019061033b91906112f2565b6107a5565b60405161034d9190611223565b60405180910390f35b610370600480360381019061036b91906111e7565b61082c565b005b60606003805461038190611361565b80601f01602080910402602001604051908101604052809291908181526020018280546103ad90611361565b80156103fa5780601f106103cf576101008083540402835291602001916103fa565b820191906000526020600020905b8154815290600101906020018083116103dd57829003601f168201915b5050505050905090565b60008061040f6108af565b905061041c8185856108b7565b600191505092915050565b61042f610a80565b80600660006101000a81548173ffffffffffffffffffffffffffffffffffffffff021916908373ffffffffffffffffffffffffffffffffffffffff1602179055508073ffffffffffffffffffffffffffffffffffffffff167f505050634b3c3660aaf2c89815af97e63af5e51ad15f2614dad575a625b4408260405160405180910390a250565b6000600254905090565b6000806104cb6108af565b90506104d8858285610afe565b6104e3858585610b8a565b60019150509392505050565b600660009054906101000a900473ffffffffffffffffffffffffffffffffffffffff1681565b60006012905090565b6000806105296108af565b905061054a81858561053b85896107a5565b61054591906113c1565b6108b7565b600191505092915050565b600660009054906101000a900473ffffffffffffffffffffffffffffffffffffffff1673ffffffffffffffffffffffffffffffffffffffff163373ffffffffffffffffffffffffffffffffffffffff16146105e5576040517f08c379a00000000000000000000000000000000000000000000000000000000081526004016105dc90611441565b60405180910390fd5b6105ef8282610e00565b5050565b60008060008373ffffffffffffffffffffffffffffffffffffffff1673ffffffffffffffffffffffffffffffffffffffff168152602001908152602001600020549050919050565b610643610a80565b61064d6000610f56565b565b6000600560009054906101000a900473ffffffffffffffffffffffffffffffffffffffff16905090565b60606004805461068890611361565b80601f01602080910402602001604051908101604052809291908181526020018280546106b490611361565b80156107015780601f106106d657610100808354040283529160200191610701565b820191906000526020600020905b8154815290600101906020018083116106e457829003601f168201915b5050505050905090565b6000806107166108af565b9050600061072482866107a5565b905083811015610769576040517f08c379a0000000000000000000000000000000000000000000000000000000008152600401610760906114d3565b60405180910390fd5b61077682868684036108b7565b60019250505092915050565b60008061078d6108af565b905061079a818585610b8a565b600191505092915050565b6000600160008473ffffffffffffffffffffffffffffffffffffffff1673ffffffffffffffffffffffffffffffffffffffff16815260200190815260200160002060008373ffffffffffffffffffffffffffffffffffffffff1673ffffffffffffffffffffffffffffffffffffffff16815260200190815260200160002054905092915050565b610834610a80565b600073ffffffffffffffffffffffffffffffffffffffff168173ffffffffffffffffffffffffffffffffffffffff16036108a3576040517f08c379a000000000000000000000000000000000000000000000000000000000815260040161089a90611565565b60405180910390fd5b6108ac81610f56565b50565b600033905090565b600073ffffffffffffffffffffffffffffffffffffffff168373ffffffffffffffffffffffffffffffffffffffff1603610926576040517f08c379a000000000000000000000000000000000000000000000000000000000815260040161091d906115f7565b60405180910390fd5b600073ffffffffffffffffffffffffffffffffffffffff168273ffffffffffffffffffffffffffffffffffffffff1603610995576040517f08c379a000000000000000000000000000000000000000000000000000000000815260040161098c90611689565b60405180910390fd5b80600160008573ffffffffffffffffffffffffffffffffffffffff1673ffffffffffffffffffffffffffffffffffffffff16815260200190815260200160002060008473ffffffffffffffffffffffffffffffffffffffff1673ffffffffffffffffffffffffffffffffffffffff168152602001908152602001600020819055508173ffffffffffffffffffffffffffffffffffffffff168373ffffffffffffffffffffffffffffffffffffffff167f8c5be1e5ebec7d5bd14f71427d1e84f3dd0314c0f7b2291e5b200ac8c7c3b92583604051610a739190611223565b60405180910390a3505050565b610a886108af565b73ffffffffffffffffffffffffffffffffffffffff16610aa661064f565b73ffffffffffffffffffffffffffffffffffffffff1614610afc576040517f08c379a0000000000000000000000000000000000000000000000000000000008152600401610af3906116f5565b60405180910390fd5b565b6000610b0a84846107a5565b90507fffffffffffffffffffffffffffffffffffffffffffffffffffffffffffffffff8114610b845781811015610b76576040517f08c379a0000000000000000000000000000000000000000000000000000000008152600401610b6d90611761565b60405180910390fd5b610b8384848484036108b7565b5b50505050565b600073ffffffffffffffffffffffffffffffffffffffff168373ffffffffffffffffffffffffffffffffffffffff1603610bf9576040517f08c379a0000000000000000000000000000000000000000000000000000000008152600401610bf0906117f3565b60405180910390fd5b600073ffffffffffffffffffffffffffffffffffffffff168273ffffffffffffffffffffffffffffffffffffffff1603610c68576040517f08c379a0000000000000000000000000000000000000000000000000000000008152600401610c5f90611885565b60405180910390fd5b610c7383838361101c565b60008060008573ffffffffffffffffffffffffffffffffffffffff1673ffffffffffffffffffffffffffffffffffffffff16815260200190815260200160002054905081811015610cf9576040517f08c379a0000000000000000000000000000000000000000000000000000000008152600401610cf090611917565b60405180910390fd5b8181036000808673ffffffffffffffffffffffffffffffffffffffff1673ffffffffffffffffffffffffffffffffffffffff16815260200190815260200160002081905550816000808573ffffffffffffffffffffffffffffffffffffffff1673ffffffffffffffffffffffffffffffffffffffff168152602001908152602001600020600082825401925050819055508273ffffffffffffffffffffffffffffffffffffffff168473ffffffffffffffffffffffffffffffffffffffff167fddf252ad1be2c89b69c2b068fc378daa952ba7f163c4a11628f55a4df523b3ef84604051610de79190611223565b60405180910390a3610dfa848484611021565b50505050565b600073ffffffffffffffffffffffffffffffffffffffff168273ffffffffffffffffffffffffffffffffffffffff1603610e6f576040517f08c379a0000000000000000000000000000000000000000000000000000000008152600401610e6690611983565b60405180910390fd5b610e7b6000838361101c565b8060026000828254610e8d91906113c1565b92505081905550806000808473ffffffffffffffffffffffffffffffffffffffff1673ffffffffffffffffffffffffffffffffffffffff168152602001908152602001600020600082825401925050819055508173ffffffffffffffffffffffffffffffffffffffff16600073ffffffffffffffffffffffffffffffffffffffff167fddf252ad1be2c89b69c2b068fc378daa952ba7f163c4a11628f55a4df523b3ef83604051610f3e9190611223565b60405180910390a3610f5260008383611021565b5050565b6000600560009054906101000a900473ffffffffffffffffffffffffffffffffffffffff16905081600560006101000a81548173ffffffffffffffffffffffffffffffffffffffff021916908373ffffffffffffffffffffffffffffffffffffffff1602179055508173ffffffffffffffffffffffffffffffffffffffff168173ffffffffffffffffffffffffffffffffffffffff167f8be0079c531659141344cd1fd0a4f28419497f9722a3daafe3b4186f6b6457e060405160405180910390a35050565b505050565b505050565b600081519050919050565b600082825260208201905092915050565b60005b83811015611060578082015181840152602081019050611045565b60008484015250505050565b6000601f19601f8301169050919050565b600061108882611026565b6110928185611031565b93506110a2818560208601611042565b6110ab8161106c565b840191505092915050565b600060208201905081810360008301526110d0818461107d565b905092915050565b600080fd5b600073ffffffffffffffffffffffffffffffffffffffff82169050919050565b6000611108826110dd565b9050919050565b611118816110fd565b811461112357600080fd5b50565b6000813590506111358161110f565b92915050565b6000819050919050565b61114e8161113b565b811461115957600080fd5b50565b60008135905061116b81611145565b92915050565b60008060408385031215611188576111876110d8565b5b600061119685828601611126565b92505060206111a78582860161115c565b9150509250929050565b60008115159050919050565b6111c6816111b1565b82525050565b60006020820190506111e160008301846111bd565b92915050565b6000602082840312156111fd576111fc6110d8565b5b600061120b84828501611126565b91505092915050565b61121d8161113b565b82525050565b60006020820190506112386000830184611214565b92915050565b600080600060608486031215611257576112566110d8565b5b600061126586828701611126565b935050602061127686828701611126565b92505060406112878682870161115c565b9150509250925092565b61129a816110fd565b82525050565b60006020820190506112b56000830184611291565b92915050565b600060ff82169050919050565b6112d1816112bb565b82525050565b60006020820190506112ec60008301846112c8565b92915050565b60008060408385031215611309576113086110d8565b5b600061131785828601611126565b925050602061132885828601611126565b9150509250929050565b7f4e487b7100000000000000000000000000000000000000000000000000000000600052602260045260246000fd5b6000600282049050600182168061137957607f821691505b60208210810361138c5761138b611332565b5b50919050565b7f4e487b7100000000000000000000000000000000000000000000000000000000600052601160045260246000fd5b60006113cc8261113b565b91506113d78361113b565b92508282019050808211156113ef576113ee611392565b5b92915050565b7f4f6e6c792067616d6520636f726520636f6e74726163742063616e206d696e74600082015250565b600061142b602083611031565b9150611436826113f5565b602082019050919050565b6000602082019050818103600083015261145a8161141e565b9050919050565b7f45524332303a2064656372656173656420616c6c6f77616e63652062656c6f7760008201527f207a65726f000000000000000000000000000000000000000000000000000000602082015250565b60006114bd602583611031565b91506114c882611461565b604082019050919050565b600060208201905081810360008301526114ec816114b0565b9050919050565b7f4f776e61626c653a206e6577206f776e657220697320746865207a65726f206160008201527f6464726573730000000000000000000000000000000000000000000000000000602082015250565b600061154f602683611031565b915061155a826114f3565b604082019050919050565b6000602082019050818103600083015261157e81611542565b9050919050565b7f45524332303a20617070726f76652066726f6d20746865207a65726f2061646460008201527f7265737300000000000000000000000000000000000000000000000000000000602082015250565b60006115e1602483611031565b91506115ec82611585565b604082019050919050565b60006020820190508181036000830152611610816115d4565b9050919050565b7f45524332303a20617070726f766520746f20746865207a65726f20616464726560008201527f7373000000000000000000000000000000000000000000000000000000000000602082015250565b6000611673602283611031565b915061167e82611617565b604082019050919050565b600060208201905081810360008301526116a281611666565b9050919050565b7f4f776e61626c653a2063616c6c6572206973206e6f7420746865206f776e6572600082015250565b60006116df602083611031565b91506116ea826116a9565b602082019050919050565b6000602082019050818103600083015261170e816116d2565b9050919050565b7f45524332303a20696e73756666696369656e7420616c6c6f77616e6365000000600082015250565b600061174b601d83611031565b915061175682611715565b602082019050919050565b6000602082019050818103600083015261177a8161173e565b9050919050565b7f45524332303a207472616e736665722066726f6d20746865207a65726f20616460008201527f6472657373000000000000000000000000000000000000000000000000000000602082015250565b60006117dd602583611031565b91506117e882611781565b604082019050919050565b6000602082019050818103600083015261180c816117d0565b9050919050565b7f45524332303a207472616e7366657220746f20746865207a65726f206164647260008201527f6573730000000000000000000000000000000000000000000000000000000000602082015250565b600061186f602383611031565b915061187a82611813565b604082019050919050565b6000602082019050818103600083015261189e81611862565b9050919050565b7f45524332303a207472616e7366657220616d6f756e742065786365656473206260008201527f616c616e63650000000000000000000000000000000000000000000000000000602082015250565b6000611901602683611031565b915061190c826118a5565b604082019050919050565b60006020820190508181036000830152611930816118f4565b9050919050565b7f45524332303a206d696e7420746f20746865207a65726f206164647265737300600082015250565b600061196d601f83611031565b915061197882611937565b602082019050919050565b6000602082019050818103600083015261199c81611960565b905091905056fea264697066735822122033b9c06bcca188f7ba034d158698f51b2da87596a0a559f1e71e75877144213164736f6c634300081c0033",
  "linkReferences": {},
  "deployedLinkReferences": {}
}